{
	"verifier.sol": {
		"Verifier": {
			"abi": [
				{
					"inputs": [
						{
							"components": [
								{
									"components": [
										{
											"internalType": "uint256",
											"name": "X",
											"type": "uint256"
										},
										{
											"internalType": "uint256",
											"name": "Y",
											"type": "uint256"
										}
									],
									"internalType": "struct Pairing.G1Point",
									"name": "a",
									"type": "tuple"
								},
								{
									"components": [
										{
											"internalType": "uint256[2]",
											"name": "X",
											"type": "uint256[2]"
										},
										{
											"internalType": "uint256[2]",
											"name": "Y",
											"type": "uint256[2]"
										}
									],
									"internalType": "struct Pairing.G2Point",
									"name": "b",
									"type": "tuple"
								},
								{
									"components": [
										{
											"internalType": "uint256",
											"name": "X",
											"type": "uint256"
										},
										{
											"internalType": "uint256",
											"name": "Y",
											"type": "uint256"
										}
									],
									"internalType": "struct Pairing.G1Point",
									"name": "c",
									"type": "tuple"
								}
							],
							"internalType": "struct Verifier.Proof",
							"name": "proof",
							"type": "tuple"
						},
						{
							"internalType": "uint256[1]",
							"name": "input",
							"type": "uint256[1]"
						}
					],
					"name": "verifyTx",
					"outputs": [
						{
							"internalType": "bool",
							"name": "r",
							"type": "bool"
						}
					],
					"stateMutability": "view",
					"type": "function"
				}
			],
			"devdoc": {
				"kind": "dev",
				"methods": {},
				"version": 1
			},
			"evm": {
				"assembly": "    /* \"verifier.sol\":6270:9704  contract Verifier {... */\n  mstore(0x40, 0x80)\n  callvalue\n  dup1\n  iszero\n  tag_1\n  jumpi\n  0x00\n  dup1\n  revert\ntag_1:\n  pop\n  dataSize(sub_0)\n  dup1\n  dataOffset(sub_0)\n  0x00\n  codecopy\n  0x00\n  return\nstop\n\nsub_0: assembly {\n        /* \"verifier.sol\":6270:9704  contract Verifier {... */\n      mstore(0x40, 0x80)\n      callvalue\n      dup1\n      iszero\n      tag_1\n      jumpi\n      0x00\n      dup1\n      revert\n    tag_1:\n      pop\n      jumpi(tag_2, lt(calldatasize, 0x04))\n      shr(0xe0, calldataload(0x00))\n      dup1\n      0xf48d7729\n      eq\n      tag_3\n      jumpi\n    tag_2:\n      0x00\n      dup1\n      revert\n        /* \"verifier.sol\":9302:9702  function verifyTx(... */\n    tag_3:\n      tag_4\n      0x04\n      dup1\n      calldatasize\n      sub\n      dup2\n      add\n      swap1\n      tag_5\n      swap2\n      swap1\n      tag_6\n      jump\t// in\n    tag_5:\n      tag_7\n      jump\t// in\n    tag_4:\n      mload(0x40)\n      tag_8\n      swap2\n      swap1\n      tag_9\n      jump\t// in\n    tag_8:\n      mload(0x40)\n      dup1\n      swap2\n      sub\n      swap1\n      return\n    tag_7:\n        /* \"verifier.sol\":9405:9411  bool r */\n      0x00\n        /* \"verifier.sol\":9423:9448  uint[] memory inputValues */\n      dup1\n        /* \"verifier.sol\":9462:9463  1 */\n      0x01\n        /* \"verifier.sol\":9451:9464  new uint[](1) */\n      0xffffffffffffffff\n      dup2\n      gt\n      iszero\n      tag_11\n      jumpi\n      tag_12\n      tag_13\n      jump\t// in\n    tag_12:\n    tag_11:\n      mload(0x40)\n      swap1\n      dup1\n      dup3\n      mstore\n      dup1\n      0x20\n      mul\n      0x20\n      add\n      dup3\n      add\n      0x40\n      mstore\n      dup1\n      iszero\n      tag_14\n      jumpi\n      dup2\n      0x20\n      add\n      0x20\n      dup3\n      mul\n      dup1\n      calldatasize\n      dup4\n      calldatacopy\n      dup1\n      dup3\n      add\n      swap2\n      pop\n      pop\n      swap1\n      pop\n    tag_14:\n      pop\n        /* \"verifier.sol\":9423:9464  uint[] memory inputValues = new uint[](1) */\n      swap1\n      pop\n        /* \"verifier.sol\":9487:9493  uint i */\n      0x00\n        /* \"verifier.sol\":9483:9571  for(uint i = 0; i < input.length; i++){... */\n    tag_15:\n        /* \"verifier.sol\":9503:9515  input.length */\n      0x01\n        /* \"verifier.sol\":9499:9500  i */\n      dup2\n        /* \"verifier.sol\":9499:9515  i < input.length */\n      lt\n        /* \"verifier.sol\":9483:9571  for(uint i = 0; i < input.length; i++){... */\n      iszero\n      tag_16\n      jumpi\n        /* \"verifier.sol\":9552:9557  input */\n      dup4\n        /* \"verifier.sol\":9558:9559  i */\n      dup2\n        /* \"verifier.sol\":9552:9560  input[i] */\n      0x01\n      dup2\n      lt\n      tag_18\n      jumpi\n      tag_19\n      tag_20\n      jump\t// in\n    tag_19:\n    tag_18:\n      0x20\n      mul\n      add\n      mload\n        /* \"verifier.sol\":9535:9546  inputValues */\n      dup3\n        /* \"verifier.sol\":9547:9548  i */\n      dup3\n        /* \"verifier.sol\":9535:9549  inputValues[i] */\n      dup2\n      mload\n      dup2\n      lt\n      tag_21\n      jumpi\n      tag_22\n      tag_20\n      jump\t// in\n    tag_22:\n    tag_21:\n      0x20\n      mul\n      0x20\n      add\n      add\n        /* \"verifier.sol\":9535:9560  inputValues[i] = input[i] */\n      dup2\n      dup2\n      mstore\n      pop\n      pop\n        /* \"verifier.sol\":9517:9520  i++ */\n      dup1\n      dup1\n      tag_23\n      swap1\n      tag_24\n      jump\t// in\n    tag_23:\n      swap2\n      pop\n      pop\n        /* \"verifier.sol\":9483:9571  for(uint i = 0; i < input.length; i++){... */\n      jump(tag_15)\n    tag_16:\n      pop\n        /* \"verifier.sol\":9614:9615  0 */\n      0x00\n        /* \"verifier.sol\":9584:9610  verify(inputValues, proof) */\n      tag_25\n        /* \"verifier.sol\":9591:9602  inputValues */\n      dup3\n        /* \"verifier.sol\":9604:9609  proof */\n      dup7\n        /* \"verifier.sol\":9584:9590  verify */\n      tag_26\n        /* \"verifier.sol\":9584:9610  verify(inputValues, proof) */\n      jump\t// in\n    tag_25:\n        /* \"verifier.sol\":9584:9615  verify(inputValues, proof) == 0 */\n      sub\n        /* \"verifier.sol\":9580:9696  if (verify(inputValues, proof) == 0) {... */\n      tag_27\n      jumpi\n        /* \"verifier.sol\":9638:9642  true */\n      0x01\n        /* \"verifier.sol\":9631:9642  return true */\n      swap2\n      pop\n      pop\n      jump(tag_10)\n        /* \"verifier.sol\":9580:9696  if (verify(inputValues, proof) == 0) {... */\n    tag_27:\n        /* \"verifier.sol\":9680:9685  false */\n      0x00\n        /* \"verifier.sol\":9673:9685  return false */\n      swap2\n      pop\n      pop\n        /* \"verifier.sol\":9302:9702  function verifyTx(... */\n    tag_10:\n      swap3\n      swap2\n      pop\n      pop\n      jump\t// out\n        /* \"verifier.sol\":8376:9297  function verify(uint[] memory input, Proof memory proof) internal view returns (uint) {... */\n    tag_26:\n        /* \"verifier.sol\":8456:8460  uint */\n      0x00\n        /* \"verifier.sol\":8472:8498  uint256 snark_scalar_field */\n      dup1\n        /* \"verifier.sol\":8501:8578  21888242871839275222246405745257275088548364400416034343698204186575808495617 */\n      0x30644e72e131a029b85045b68181585d2833e84879b9709143e1f593f0000001\n        /* \"verifier.sol\":8472:8578  uint256 snark_scalar_field = 21888242871839275222246405745257275088548364400416034343698204186575808495617 */\n      swap1\n      pop\n        /* \"verifier.sol\":8588:8610  VerifyingKey memory vk */\n      0x00\n        /* \"verifier.sol\":8613:8627  verifyingKey() */\n      tag_30\n        /* \"verifier.sol\":8613:8625  verifyingKey */\n      tag_31\n        /* \"verifier.sol\":8613:8627  verifyingKey() */\n      jump\t// in\n    tag_30:\n        /* \"verifier.sol\":8588:8627  VerifyingKey memory vk = verifyingKey() */\n      swap1\n      pop\n        /* \"verifier.sol\":8665:8667  vk */\n      dup1\n        /* \"verifier.sol\":8665:8677  vk.gamma_abc */\n      0x80\n      add\n      mload\n        /* \"verifier.sol\":8665:8684  vk.gamma_abc.length */\n      mload\n        /* \"verifier.sol\":8660:8661  1 */\n      0x01\n        /* \"verifier.sol\":8645:8650  input */\n      dup7\n        /* \"verifier.sol\":8645:8657  input.length */\n      mload\n        /* \"verifier.sol\":8645:8661  input.length + 1 */\n      tag_32\n      swap2\n      swap1\n      tag_33\n      jump\t// in\n    tag_32:\n        /* \"verifier.sol\":8645:8684  input.length + 1 == vk.gamma_abc.length */\n      eq\n        /* \"verifier.sol\":8637:8685  require(input.length + 1 == vk.gamma_abc.length) */\n      tag_34\n      jumpi\n      0x00\n      dup1\n      revert\n    tag_34:\n        /* \"verifier.sol\":8742:8769  Pairing.G1Point memory vk_x */\n      0x00\n        /* \"verifier.sol\":8772:8793  Pairing.G1Point(0, 0) */\n      mload(0x40)\n      dup1\n      0x40\n      add\n      0x40\n      mstore\n      dup1\n        /* \"verifier.sol\":8788:8789  0 */\n      0x00\n        /* \"verifier.sol\":8772:8793  Pairing.G1Point(0, 0) */\n      dup2\n      mstore\n      0x20\n      add\n        /* \"verifier.sol\":8791:8792  0 */\n      0x00\n        /* \"verifier.sol\":8772:8793  Pairing.G1Point(0, 0) */\n      dup2\n      mstore\n      pop\n        /* \"verifier.sol\":8742:8793  Pairing.G1Point memory vk_x = Pairing.G1Point(0, 0) */\n      swap1\n      pop\n        /* \"verifier.sol\":8808:8814  uint i */\n      0x00\n        /* \"verifier.sol\":8803:9000  for (uint i = 0; i < input.length; i++) {... */\n    tag_35:\n        /* \"verifier.sol\":8824:8829  input */\n      dup7\n        /* \"verifier.sol\":8824:8836  input.length */\n      mload\n        /* \"verifier.sol\":8820:8821  i */\n      dup2\n        /* \"verifier.sol\":8820:8836  i < input.length */\n      lt\n        /* \"verifier.sol\":8803:9000  for (uint i = 0; i < input.length; i++) {... */\n      iszero\n      tag_36\n      jumpi\n        /* \"verifier.sol\":8876:8894  snark_scalar_field */\n      dup4\n        /* \"verifier.sol\":8865:8870  input */\n      dup8\n        /* \"verifier.sol\":8871:8872  i */\n      dup3\n        /* \"verifier.sol\":8865:8873  input[i] */\n      dup2\n      mload\n      dup2\n      lt\n      tag_38\n      jumpi\n      tag_39\n      tag_20\n      jump\t// in\n    tag_39:\n    tag_38:\n      0x20\n      mul\n      0x20\n      add\n      add\n      mload\n        /* \"verifier.sol\":8865:8894  input[i] < snark_scalar_field */\n      lt\n        /* \"verifier.sol\":8857:8895  require(input[i] < snark_scalar_field) */\n      tag_40\n      jumpi\n      0x00\n      dup1\n      revert\n    tag_40:\n        /* \"verifier.sol\":8916:8989  Pairing.addition(vk_x, Pairing.scalar_mul(vk.gamma_abc[i + 1], input[i])) */\n      tag_41\n        /* \"verifier.sol\":8933:8937  vk_x */\n      dup3\n        /* \"verifier.sol\":8939:8988  Pairing.scalar_mul(vk.gamma_abc[i + 1], input[i]) */\n      tag_42\n        /* \"verifier.sol\":8958:8960  vk */\n      dup6\n        /* \"verifier.sol\":8958:8970  vk.gamma_abc */\n      0x80\n      add\n      mload\n        /* \"verifier.sol\":8975:8976  1 */\n      0x01\n        /* \"verifier.sol\":8971:8972  i */\n      dup6\n        /* \"verifier.sol\":8971:8976  i + 1 */\n      tag_43\n      swap2\n      swap1\n      tag_33\n      jump\t// in\n    tag_43:\n        /* \"verifier.sol\":8958:8977  vk.gamma_abc[i + 1] */\n      dup2\n      mload\n      dup2\n      lt\n      tag_44\n      jumpi\n      tag_45\n      tag_20\n      jump\t// in\n    tag_45:\n    tag_44:\n      0x20\n      mul\n      0x20\n      add\n      add\n      mload\n        /* \"verifier.sol\":8979:8984  input */\n      dup11\n        /* \"verifier.sol\":8985:8986  i */\n      dup6\n        /* \"verifier.sol\":8979:8987  input[i] */\n      dup2\n      mload\n      dup2\n      lt\n      tag_46\n      jumpi\n      tag_47\n      tag_20\n      jump\t// in\n    tag_47:\n    tag_46:\n      0x20\n      mul\n      0x20\n      add\n      add\n      mload\n        /* \"verifier.sol\":8939:8957  Pairing.scalar_mul */\n      tag_48\n        /* \"verifier.sol\":8939:8988  Pairing.scalar_mul(vk.gamma_abc[i + 1], input[i]) */\n      jump\t// in\n    tag_42:\n        /* \"verifier.sol\":8916:8932  Pairing.addition */\n      tag_49\n        /* \"verifier.sol\":8916:8989  Pairing.addition(vk_x, Pairing.scalar_mul(vk.gamma_abc[i + 1], input[i])) */\n      jump\t// in\n    tag_41:\n        /* \"verifier.sol\":8909:8989  vk_x = Pairing.addition(vk_x, Pairing.scalar_mul(vk.gamma_abc[i + 1], input[i])) */\n      swap2\n      pop\n        /* \"verifier.sol\":8838:8841  i++ */\n      dup1\n      dup1\n      tag_50\n      swap1\n      tag_24\n      jump\t// in\n    tag_50:\n      swap2\n      pop\n      pop\n        /* \"verifier.sol\":8803:9000  for (uint i = 0; i < input.length; i++) {... */\n      jump(tag_35)\n    tag_36:\n      pop\n        /* \"verifier.sol\":9016:9055  Pairing.addition(vk_x, vk.gamma_abc[0]) */\n      tag_51\n        /* \"verifier.sol\":9033:9037  vk_x */\n      dup2\n        /* \"verifier.sol\":9039:9041  vk */\n      dup4\n        /* \"verifier.sol\":9039:9051  vk.gamma_abc */\n      0x80\n      add\n      mload\n        /* \"verifier.sol\":9052:9053  0 */\n      0x00\n        /* \"verifier.sol\":9039:9054  vk.gamma_abc[0] */\n      dup2\n      mload\n      dup2\n      lt\n      tag_52\n      jumpi\n      tag_53\n      tag_20\n      jump\t// in\n    tag_53:\n    tag_52:\n      0x20\n      mul\n      0x20\n      add\n      add\n      mload\n        /* \"verifier.sol\":9016:9032  Pairing.addition */\n      tag_49\n        /* \"verifier.sol\":9016:9055  Pairing.addition(vk_x, vk.gamma_abc[0]) */\n      jump\t// in\n    tag_51:\n        /* \"verifier.sol\":9009:9055  vk_x = Pairing.addition(vk_x, vk.gamma_abc[0]) */\n      swap1\n      pop\n        /* \"verifier.sol\":9069:9262  Pairing.pairingProd4(... */\n      tag_54\n        /* \"verifier.sol\":9104:9109  proof */\n      dup6\n        /* \"verifier.sol\":9104:9111  proof.a */\n      0x00\n      add\n      mload\n        /* \"verifier.sol\":9113:9118  proof */\n      dup7\n        /* \"verifier.sol\":9113:9120  proof.b */\n      0x20\n      add\n      mload\n        /* \"verifier.sol\":9135:9155  Pairing.negate(vk_x) */\n      tag_55\n        /* \"verifier.sol\":9150:9154  vk_x */\n      dup5\n        /* \"verifier.sol\":9135:9149  Pairing.negate */\n      tag_56\n        /* \"verifier.sol\":9135:9155  Pairing.negate(vk_x) */\n      jump\t// in\n    tag_55:\n        /* \"verifier.sol\":9157:9159  vk */\n      dup6\n        /* \"verifier.sol\":9157:9165  vk.gamma */\n      0x40\n      add\n      mload\n        /* \"verifier.sol\":9180:9203  Pairing.negate(proof.c) */\n      tag_57\n        /* \"verifier.sol\":9195:9200  proof */\n      dup11\n        /* \"verifier.sol\":9195:9202  proof.c */\n      0x40\n      add\n      mload\n        /* \"verifier.sol\":9180:9194  Pairing.negate */\n      tag_56\n        /* \"verifier.sol\":9180:9203  Pairing.negate(proof.c) */\n      jump\t// in\n    tag_57:\n        /* \"verifier.sol\":9205:9207  vk */\n      dup8\n        /* \"verifier.sol\":9205:9213  vk.delta */\n      0x60\n      add\n      mload\n        /* \"verifier.sol\":9228:9252  Pairing.negate(vk.alpha) */\n      tag_58\n        /* \"verifier.sol\":9243:9245  vk */\n      dup10\n        /* \"verifier.sol\":9243:9251  vk.alpha */\n      0x00\n      add\n      mload\n        /* \"verifier.sol\":9228:9242  Pairing.negate */\n      tag_56\n        /* \"verifier.sol\":9228:9252  Pairing.negate(vk.alpha) */\n      jump\t// in\n    tag_58:\n        /* \"verifier.sol\":9254:9256  vk */\n      dup10\n        /* \"verifier.sol\":9254:9261  vk.beta */\n      0x20\n      add\n      mload\n        /* \"verifier.sol\":9069:9089  Pairing.pairingProd4 */\n      tag_59\n        /* \"verifier.sol\":9069:9262  Pairing.pairingProd4(... */\n      jump\t// in\n    tag_54:\n        /* \"verifier.sol\":9065:9272  if(!Pairing.pairingProd4(... */\n      tag_60\n      jumpi\n        /* \"verifier.sol\":9271:9272  1 */\n      0x01\n        /* \"verifier.sol\":9264:9272  return 1 */\n      swap4\n      pop\n      pop\n      pop\n      pop\n      jump(tag_29)\n        /* \"verifier.sol\":9065:9272  if(!Pairing.pairingProd4(... */\n    tag_60:\n        /* \"verifier.sol\":9289:9290  0 */\n      0x00\n        /* \"verifier.sol\":9282:9290  return 0 */\n      swap4\n      pop\n      pop\n      pop\n      pop\n        /* \"verifier.sol\":8376:9297  function verify(uint[] memory input, Proof memory proof) internal view returns (uint) {... */\n    tag_29:\n      swap3\n      swap2\n      pop\n      pop\n      jump\t// out\n        /* \"verifier.sol\":6617:8371  function verifyingKey() pure internal returns (VerifyingKey memory vk) {... */\n    tag_31:\n        /* \"verifier.sol\":6664:6686  VerifyingKey memory vk */\n      tag_61\n      tag_62\n      jump\t// in\n    tag_61:\n        /* \"verifier.sol\":6709:6878  Pairing.G1Point(uint256(0x2b57d86fbee204a508d151696f54dffdbe2cfbbf12f5666fa519a3f4ae46bba2), uint256(0x1599a844a6d43feee3c4e4c23a7a655546f051257b598d54e003c8e2c078f6c3)) */\n      mload(0x40)\n      dup1\n      0x40\n      add\n      0x40\n      mstore\n      dup1\n        /* \"verifier.sol\":6733:6799  0x2b57d86fbee204a508d151696f54dffdbe2cfbbf12f5666fa519a3f4ae46bba2 */\n      0x2b57d86fbee204a508d151696f54dffdbe2cfbbf12f5666fa519a3f4ae46bba2\n        /* \"verifier.sol\":6709:6878  Pairing.G1Point(uint256(0x2b57d86fbee204a508d151696f54dffdbe2cfbbf12f5666fa519a3f4ae46bba2), uint256(0x1599a844a6d43feee3c4e4c23a7a655546f051257b598d54e003c8e2c078f6c3)) */\n      dup2\n      mstore\n      0x20\n      add\n        /* \"verifier.sol\":6810:6876  0x1599a844a6d43feee3c4e4c23a7a655546f051257b598d54e003c8e2c078f6c3 */\n      0x1599a844a6d43feee3c4e4c23a7a655546f051257b598d54e003c8e2c078f6c3\n        /* \"verifier.sol\":6709:6878  Pairing.G1Point(uint256(0x2b57d86fbee204a508d151696f54dffdbe2cfbbf12f5666fa519a3f4ae46bba2), uint256(0x1599a844a6d43feee3c4e4c23a7a655546f051257b598d54e003c8e2c078f6c3)) */\n      dup2\n      mstore\n      pop\n        /* \"verifier.sol\":6698:6700  vk */\n      dup2\n        /* \"verifier.sol\":6698:6706  vk.alpha */\n      0x00\n      add\n        /* \"verifier.sol\":6698:6878  vk.alpha = Pairing.G1Point(uint256(0x2b57d86fbee204a508d151696f54dffdbe2cfbbf12f5666fa519a3f4ae46bba2), uint256(0x1599a844a6d43feee3c4e4c23a7a655546f051257b598d54e003c8e2c078f6c3)) */\n      dup2\n      swap1\n      mstore\n      pop\n        /* \"verifier.sol\":6898:7225  Pairing.G2Point([uint256(0x29230605a78e74382750102eff3f07906f40e69bcd8a952d0fdee833a55fa992), uint256(0x24e163644046e056eebf85f484eec92efbb6898c619c8233059dd177637bcc5e)], [uint256(0x24130e967dcaac9b270979d2a15ae45c9d189ebe74044e6b49a68208222da266), uint256(0x071722e60d10a35f522d4cd8ac14bb8d8c35977f3ca0cdad2a6eaaa015cb35e2)]) */\n      mload(0x40)\n      dup1\n      0x40\n      add\n      0x40\n      mstore\n      dup1\n      mload(0x40)\n      dup1\n      0x40\n      add\n      0x40\n      mstore\n      dup1\n        /* \"verifier.sol\":6923:6989  0x29230605a78e74382750102eff3f07906f40e69bcd8a952d0fdee833a55fa992 */\n      0x29230605a78e74382750102eff3f07906f40e69bcd8a952d0fdee833a55fa992\n        /* \"verifier.sol\":6898:7225  Pairing.G2Point([uint256(0x29230605a78e74382750102eff3f07906f40e69bcd8a952d0fdee833a55fa992), uint256(0x24e163644046e056eebf85f484eec92efbb6898c619c8233059dd177637bcc5e)], [uint256(0x24130e967dcaac9b270979d2a15ae45c9d189ebe74044e6b49a68208222da266), uint256(0x071722e60d10a35f522d4cd8ac14bb8d8c35977f3ca0cdad2a6eaaa015cb35e2)]) */\n      dup2\n      mstore\n      0x20\n      add\n        /* \"verifier.sol\":7000:7066  0x24e163644046e056eebf85f484eec92efbb6898c619c8233059dd177637bcc5e */\n      0x24e163644046e056eebf85f484eec92efbb6898c619c8233059dd177637bcc5e\n        /* \"verifier.sol\":6898:7225  Pairing.G2Point([uint256(0x29230605a78e74382750102eff3f07906f40e69bcd8a952d0fdee833a55fa992), uint256(0x24e163644046e056eebf85f484eec92efbb6898c619c8233059dd177637bcc5e)], [uint256(0x24130e967dcaac9b270979d2a15ae45c9d189ebe74044e6b49a68208222da266), uint256(0x071722e60d10a35f522d4cd8ac14bb8d8c35977f3ca0cdad2a6eaaa015cb35e2)]) */\n      dup2\n      mstore\n      pop\n      dup2\n      mstore\n      0x20\n      add\n      mload(0x40)\n      dup1\n      0x40\n      add\n      0x40\n      mstore\n      dup1\n        /* \"verifier.sol\":7079:7145  0x24130e967dcaac9b270979d2a15ae45c9d189ebe74044e6b49a68208222da266 */\n      0x24130e967dcaac9b270979d2a15ae45c9d189ebe74044e6b49a68208222da266\n        /* \"verifier.sol\":6898:7225  Pairing.G2Point([uint256(0x29230605a78e74382750102eff3f07906f40e69bcd8a952d0fdee833a55fa992), uint256(0x24e163644046e056eebf85f484eec92efbb6898c619c8233059dd177637bcc5e)], [uint256(0x24130e967dcaac9b270979d2a15ae45c9d189ebe74044e6b49a68208222da266), uint256(0x071722e60d10a35f522d4cd8ac14bb8d8c35977f3ca0cdad2a6eaaa015cb35e2)]) */\n      dup2\n      mstore\n      0x20\n      add\n        /* \"verifier.sol\":7156:7222  0x071722e60d10a35f522d4cd8ac14bb8d8c35977f3ca0cdad2a6eaaa015cb35e2 */\n      0x071722e60d10a35f522d4cd8ac14bb8d8c35977f3ca0cdad2a6eaaa015cb35e2\n        /* \"verifier.sol\":6898:7225  Pairing.G2Point([uint256(0x29230605a78e74382750102eff3f07906f40e69bcd8a952d0fdee833a55fa992), uint256(0x24e163644046e056eebf85f484eec92efbb6898c619c8233059dd177637bcc5e)], [uint256(0x24130e967dcaac9b270979d2a15ae45c9d189ebe74044e6b49a68208222da266), uint256(0x071722e60d10a35f522d4cd8ac14bb8d8c35977f3ca0cdad2a6eaaa015cb35e2)]) */\n      dup2\n      mstore\n      pop\n      dup2\n      mstore\n      pop\n        /* \"verifier.sol\":6888:6890  vk */\n      dup2\n        /* \"verifier.sol\":6888:6895  vk.beta */\n      0x20\n      add\n        /* \"verifier.sol\":6888:7225  vk.beta = Pairing.G2Point([uint256(0x29230605a78e74382750102eff3f07906f40e69bcd8a952d0fdee833a55fa992), uint256(0x24e163644046e056eebf85f484eec92efbb6898c619c8233059dd177637bcc5e)], [uint256(0x24130e967dcaac9b270979d2a15ae45c9d189ebe74044e6b49a68208222da266), uint256(0x071722e60d10a35f522d4cd8ac14bb8d8c35977f3ca0cdad2a6eaaa015cb35e2)]) */\n      dup2\n      swap1\n      mstore\n      pop\n        /* \"verifier.sol\":7246:7573  Pairing.G2Point([uint256(0x1b1930db3fa748039efd007245830609cc120a80b383cae28061cbcafa7fb6c2), uint256(0x2bea5128998e51ced0d5efd5e63e86c102cc3b45f768a3da7db6a360e5de5dd0)], [uint256(0x2984242441b994dc1c70f3d9a2252b10138c3caab073cdbcb452f63f28840fc4), uint256(0x1b0f3366453eb215c1688155e3b86ac880ab9149686d2089cbe28cad0caafe21)]) */\n      mload(0x40)\n      dup1\n      0x40\n      add\n      0x40\n      mstore\n      dup1\n      mload(0x40)\n      dup1\n      0x40\n      add\n      0x40\n      mstore\n      dup1\n        /* \"verifier.sol\":7271:7337  0x1b1930db3fa748039efd007245830609cc120a80b383cae28061cbcafa7fb6c2 */\n      0x1b1930db3fa748039efd007245830609cc120a80b383cae28061cbcafa7fb6c2\n        /* \"verifier.sol\":7246:7573  Pairing.G2Point([uint256(0x1b1930db3fa748039efd007245830609cc120a80b383cae28061cbcafa7fb6c2), uint256(0x2bea5128998e51ced0d5efd5e63e86c102cc3b45f768a3da7db6a360e5de5dd0)], [uint256(0x2984242441b994dc1c70f3d9a2252b10138c3caab073cdbcb452f63f28840fc4), uint256(0x1b0f3366453eb215c1688155e3b86ac880ab9149686d2089cbe28cad0caafe21)]) */\n      dup2\n      mstore\n      0x20\n      add\n        /* \"verifier.sol\":7348:7414  0x2bea5128998e51ced0d5efd5e63e86c102cc3b45f768a3da7db6a360e5de5dd0 */\n      0x2bea5128998e51ced0d5efd5e63e86c102cc3b45f768a3da7db6a360e5de5dd0\n        /* \"verifier.sol\":7246:7573  Pairing.G2Point([uint256(0x1b1930db3fa748039efd007245830609cc120a80b383cae28061cbcafa7fb6c2), uint256(0x2bea5128998e51ced0d5efd5e63e86c102cc3b45f768a3da7db6a360e5de5dd0)], [uint256(0x2984242441b994dc1c70f3d9a2252b10138c3caab073cdbcb452f63f28840fc4), uint256(0x1b0f3366453eb215c1688155e3b86ac880ab9149686d2089cbe28cad0caafe21)]) */\n      dup2\n      mstore\n      pop\n      dup2\n      mstore\n      0x20\n      add\n      mload(0x40)\n      dup1\n      0x40\n      add\n      0x40\n      mstore\n      dup1\n        /* \"verifier.sol\":7427:7493  0x2984242441b994dc1c70f3d9a2252b10138c3caab073cdbcb452f63f28840fc4 */\n      0x2984242441b994dc1c70f3d9a2252b10138c3caab073cdbcb452f63f28840fc4\n        /* \"verifier.sol\":7246:7573  Pairing.G2Point([uint256(0x1b1930db3fa748039efd007245830609cc120a80b383cae28061cbcafa7fb6c2), uint256(0x2bea5128998e51ced0d5efd5e63e86c102cc3b45f768a3da7db6a360e5de5dd0)], [uint256(0x2984242441b994dc1c70f3d9a2252b10138c3caab073cdbcb452f63f28840fc4), uint256(0x1b0f3366453eb215c1688155e3b86ac880ab9149686d2089cbe28cad0caafe21)]) */\n      dup2\n      mstore\n      0x20\n      add\n        /* \"verifier.sol\":7504:7570  0x1b0f3366453eb215c1688155e3b86ac880ab9149686d2089cbe28cad0caafe21 */\n      0x1b0f3366453eb215c1688155e3b86ac880ab9149686d2089cbe28cad0caafe21\n        /* \"verifier.sol\":7246:7573  Pairing.G2Point([uint256(0x1b1930db3fa748039efd007245830609cc120a80b383cae28061cbcafa7fb6c2), uint256(0x2bea5128998e51ced0d5efd5e63e86c102cc3b45f768a3da7db6a360e5de5dd0)], [uint256(0x2984242441b994dc1c70f3d9a2252b10138c3caab073cdbcb452f63f28840fc4), uint256(0x1b0f3366453eb215c1688155e3b86ac880ab9149686d2089cbe28cad0caafe21)]) */\n      dup2\n      mstore\n      pop\n      dup2\n      mstore\n      pop\n        /* \"verifier.sol\":7235:7237  vk */\n      dup2\n        /* \"verifier.sol\":7235:7243  vk.gamma */\n      0x40\n      add\n        /* \"verifier.sol\":7235:7573  vk.gamma = Pairing.G2Point([uint256(0x1b1930db3fa748039efd007245830609cc120a80b383cae28061cbcafa7fb6c2), uint256(0x2bea5128998e51ced0d5efd5e63e86c102cc3b45f768a3da7db6a360e5de5dd0)], [uint256(0x2984242441b994dc1c70f3d9a2252b10138c3caab073cdbcb452f63f28840fc4), uint256(0x1b0f3366453eb215c1688155e3b86ac880ab9149686d2089cbe28cad0caafe21)]) */\n      dup2\n      swap1\n      mstore\n      pop\n        /* \"verifier.sol\":7594:7921  Pairing.G2Point([uint256(0x23ee6cb0aae97d872c272ad7d7358b535ff6205a6850bf98bad43ddb1503a5c8), uint256(0x2929a2bd51132c6e49d5aaeb03ad65c21432aa39641895ea2a0cca2be2cbc796)], [uint256(0x11b40067486ca8be694c8903c86e4ffff778e69f7f8a6395618ae8eec404ae8d), uint256(0x1421055c7f11bb433f26a76f49ffbe37709ac1fbd35fd2206138a6a01c071b15)]) */\n      mload(0x40)\n      dup1\n      0x40\n      add\n      0x40\n      mstore\n      dup1\n      mload(0x40)\n      dup1\n      0x40\n      add\n      0x40\n      mstore\n      dup1\n        /* \"verifier.sol\":7619:7685  0x23ee6cb0aae97d872c272ad7d7358b535ff6205a6850bf98bad43ddb1503a5c8 */\n      0x23ee6cb0aae97d872c272ad7d7358b535ff6205a6850bf98bad43ddb1503a5c8\n        /* \"verifier.sol\":7594:7921  Pairing.G2Point([uint256(0x23ee6cb0aae97d872c272ad7d7358b535ff6205a6850bf98bad43ddb1503a5c8), uint256(0x2929a2bd51132c6e49d5aaeb03ad65c21432aa39641895ea2a0cca2be2cbc796)], [uint256(0x11b40067486ca8be694c8903c86e4ffff778e69f7f8a6395618ae8eec404ae8d), uint256(0x1421055c7f11bb433f26a76f49ffbe37709ac1fbd35fd2206138a6a01c071b15)]) */\n      dup2\n      mstore\n      0x20\n      add\n        /* \"verifier.sol\":7696:7762  0x2929a2bd51132c6e49d5aaeb03ad65c21432aa39641895ea2a0cca2be2cbc796 */\n      0x2929a2bd51132c6e49d5aaeb03ad65c21432aa39641895ea2a0cca2be2cbc796\n        /* \"verifier.sol\":7594:7921  Pairing.G2Point([uint256(0x23ee6cb0aae97d872c272ad7d7358b535ff6205a6850bf98bad43ddb1503a5c8), uint256(0x2929a2bd51132c6e49d5aaeb03ad65c21432aa39641895ea2a0cca2be2cbc796)], [uint256(0x11b40067486ca8be694c8903c86e4ffff778e69f7f8a6395618ae8eec404ae8d), uint256(0x1421055c7f11bb433f26a76f49ffbe37709ac1fbd35fd2206138a6a01c071b15)]) */\n      dup2\n      mstore\n      pop\n      dup2\n      mstore\n      0x20\n      add\n      mload(0x40)\n      dup1\n      0x40\n      add\n      0x40\n      mstore\n      dup1\n        /* \"verifier.sol\":7775:7841  0x11b40067486ca8be694c8903c86e4ffff778e69f7f8a6395618ae8eec404ae8d */\n      0x11b40067486ca8be694c8903c86e4ffff778e69f7f8a6395618ae8eec404ae8d\n        /* \"verifier.sol\":7594:7921  Pairing.G2Point([uint256(0x23ee6cb0aae97d872c272ad7d7358b535ff6205a6850bf98bad43ddb1503a5c8), uint256(0x2929a2bd51132c6e49d5aaeb03ad65c21432aa39641895ea2a0cca2be2cbc796)], [uint256(0x11b40067486ca8be694c8903c86e4ffff778e69f7f8a6395618ae8eec404ae8d), uint256(0x1421055c7f11bb433f26a76f49ffbe37709ac1fbd35fd2206138a6a01c071b15)]) */\n      dup2\n      mstore\n      0x20\n      add\n        /* \"verifier.sol\":7852:7918  0x1421055c7f11bb433f26a76f49ffbe37709ac1fbd35fd2206138a6a01c071b15 */\n      0x1421055c7f11bb433f26a76f49ffbe37709ac1fbd35fd2206138a6a01c071b15\n        /* \"verifier.sol\":7594:7921  Pairing.G2Point([uint256(0x23ee6cb0aae97d872c272ad7d7358b535ff6205a6850bf98bad43ddb1503a5c8), uint256(0x2929a2bd51132c6e49d5aaeb03ad65c21432aa39641895ea2a0cca2be2cbc796)], [uint256(0x11b40067486ca8be694c8903c86e4ffff778e69f7f8a6395618ae8eec404ae8d), uint256(0x1421055c7f11bb433f26a76f49ffbe37709ac1fbd35fd2206138a6a01c071b15)]) */\n      dup2\n      mstore\n      pop\n      dup2\n      mstore\n      pop\n        /* \"verifier.sol\":7583:7585  vk */\n      dup2\n        /* \"verifier.sol\":7583:7591  vk.delta */\n      0x60\n      add\n        /* \"verifier.sol\":7583:7921  vk.delta = Pairing.G2Point([uint256(0x23ee6cb0aae97d872c272ad7d7358b535ff6205a6850bf98bad43ddb1503a5c8), uint256(0x2929a2bd51132c6e49d5aaeb03ad65c21432aa39641895ea2a0cca2be2cbc796)], [uint256(0x11b40067486ca8be694c8903c86e4ffff778e69f7f8a6395618ae8eec404ae8d), uint256(0x1421055c7f11bb433f26a76f49ffbe37709ac1fbd35fd2206138a6a01c071b15)]) */\n      dup2\n      swap1\n      mstore\n      pop\n        /* \"verifier.sol\":7968:7969  2 */\n      0x02\n        /* \"verifier.sol\":7946:7970  new Pairing.G1Point[](2) */\n      0xffffffffffffffff\n      dup2\n      gt\n      iszero\n      tag_64\n      jumpi\n      tag_65\n      tag_13\n      jump\t// in\n    tag_65:\n    tag_64:\n      mload(0x40)\n      swap1\n      dup1\n      dup3\n      mstore\n      dup1\n      0x20\n      mul\n      0x20\n      add\n      dup3\n      add\n      0x40\n      mstore\n      dup1\n      iszero\n      tag_66\n      jumpi\n      dup2\n      0x20\n      add\n    tag_67:\n      tag_68\n      tag_69\n      jump\t// in\n    tag_68:\n      dup2\n      mstore\n      0x20\n      add\n      swap1\n      0x01\n      swap1\n      sub\n      swap1\n      dup2\n      tag_67\n      jumpi\n      swap1\n      pop\n    tag_66:\n      pop\n        /* \"verifier.sol\":7931:7933  vk */\n      dup2\n        /* \"verifier.sol\":7931:7943  vk.gamma_abc */\n      0x80\n      add\n        /* \"verifier.sol\":7931:7970  vk.gamma_abc = new Pairing.G1Point[](2) */\n      dup2\n      swap1\n      mstore\n      pop\n        /* \"verifier.sol\":7998:8167  Pairing.G1Point(uint256(0x1ad41b2f3b3dec33858d39d8a17a9dbb576cd47ca64fce07209783cbd59d9a12), uint256(0x22c73c904c306caf013cb29c1ce589558f8b59c433ad582239e88ba2a0d61544)) */\n      mload(0x40)\n      dup1\n      0x40\n      add\n      0x40\n      mstore\n      dup1\n        /* \"verifier.sol\":8022:8088  0x1ad41b2f3b3dec33858d39d8a17a9dbb576cd47ca64fce07209783cbd59d9a12 */\n      0x1ad41b2f3b3dec33858d39d8a17a9dbb576cd47ca64fce07209783cbd59d9a12\n        /* \"verifier.sol\":7998:8167  Pairing.G1Point(uint256(0x1ad41b2f3b3dec33858d39d8a17a9dbb576cd47ca64fce07209783cbd59d9a12), uint256(0x22c73c904c306caf013cb29c1ce589558f8b59c433ad582239e88ba2a0d61544)) */\n      dup2\n      mstore\n      0x20\n      add\n        /* \"verifier.sol\":8099:8165  0x22c73c904c306caf013cb29c1ce589558f8b59c433ad582239e88ba2a0d61544 */\n      0x22c73c904c306caf013cb29c1ce589558f8b59c433ad582239e88ba2a0d61544\n        /* \"verifier.sol\":7998:8167  Pairing.G1Point(uint256(0x1ad41b2f3b3dec33858d39d8a17a9dbb576cd47ca64fce07209783cbd59d9a12), uint256(0x22c73c904c306caf013cb29c1ce589558f8b59c433ad582239e88ba2a0d61544)) */\n      dup2\n      mstore\n      pop\n        /* \"verifier.sol\":7980:7982  vk */\n      dup2\n        /* \"verifier.sol\":7980:7992  vk.gamma_abc */\n      0x80\n      add\n      mload\n        /* \"verifier.sol\":7993:7994  0 */\n      0x00\n        /* \"verifier.sol\":7980:7995  vk.gamma_abc[0] */\n      dup2\n      mload\n      dup2\n      lt\n      tag_70\n      jumpi\n      tag_71\n      tag_20\n      jump\t// in\n    tag_71:\n    tag_70:\n      0x20\n      mul\n      0x20\n      add\n      add\n        /* \"verifier.sol\":7980:8167  vk.gamma_abc[0] = Pairing.G1Point(uint256(0x1ad41b2f3b3dec33858d39d8a17a9dbb576cd47ca64fce07209783cbd59d9a12), uint256(0x22c73c904c306caf013cb29c1ce589558f8b59c433ad582239e88ba2a0d61544)) */\n      dup2\n      swap1\n      mstore\n      pop\n        /* \"verifier.sol\":8195:8364  Pairing.G1Point(uint256(0x27b08f3bcc7992eaad60577e68e249079255086f5bed2c69b9d01f8bea3ff043), uint256(0x05506163277d78a204f426e7a4b40bddf0973a838e3dffb7614756e665b72a27)) */\n      mload(0x40)\n      dup1\n      0x40\n      add\n      0x40\n      mstore\n      dup1\n        /* \"verifier.sol\":8219:8285  0x27b08f3bcc7992eaad60577e68e249079255086f5bed2c69b9d01f8bea3ff043 */\n      0x27b08f3bcc7992eaad60577e68e249079255086f5bed2c69b9d01f8bea3ff043\n        /* \"verifier.sol\":8195:8364  Pairing.G1Point(uint256(0x27b08f3bcc7992eaad60577e68e249079255086f5bed2c69b9d01f8bea3ff043), uint256(0x05506163277d78a204f426e7a4b40bddf0973a838e3dffb7614756e665b72a27)) */\n      dup2\n      mstore\n      0x20\n      add\n        /* \"verifier.sol\":8296:8362  0x05506163277d78a204f426e7a4b40bddf0973a838e3dffb7614756e665b72a27 */\n      0x05506163277d78a204f426e7a4b40bddf0973a838e3dffb7614756e665b72a27\n        /* \"verifier.sol\":8195:8364  Pairing.G1Point(uint256(0x27b08f3bcc7992eaad60577e68e249079255086f5bed2c69b9d01f8bea3ff043), uint256(0x05506163277d78a204f426e7a4b40bddf0973a838e3dffb7614756e665b72a27)) */\n      dup2\n      mstore\n      pop\n        /* \"verifier.sol\":8177:8179  vk */\n      dup2\n        /* \"verifier.sol\":8177:8189  vk.gamma_abc */\n      0x80\n      add\n      mload\n        /* \"verifier.sol\":8190:8191  1 */\n      0x01\n        /* \"verifier.sol\":8177:8192  vk.gamma_abc[1] */\n      dup2\n      mload\n      dup2\n      lt\n      tag_72\n      jumpi\n      tag_73\n      tag_20\n      jump\t// in\n    tag_73:\n    tag_72:\n      0x20\n      mul\n      0x20\n      add\n      add\n        /* \"verifier.sol\":8177:8364  vk.gamma_abc[1] = Pairing.G1Point(uint256(0x27b08f3bcc7992eaad60577e68e249079255086f5bed2c69b9d01f8bea3ff043), uint256(0x05506163277d78a204f426e7a4b40bddf0973a838e3dffb7614756e665b72a27)) */\n      dup2\n      swap1\n      mstore\n      pop\n        /* \"verifier.sol\":6617:8371  function verifyingKey() pure internal returns (VerifyingKey memory vk) {... */\n      swap1\n      jump\t// out\n        /* \"verifier.sol\":3118:3572  function scalar_mul(G1Point memory p, uint s) internal view returns (G1Point memory r) {... */\n    tag_48:\n        /* \"verifier.sol\":3187:3203  G1Point memory r */\n      tag_74\n      tag_69\n      jump\t// in\n    tag_74:\n        /* \"verifier.sol\":3215:3235  uint[3] memory input */\n      tag_76\n      tag_77\n      jump\t// in\n    tag_76:\n        /* \"verifier.sol\":3256:3257  p */\n      dup4\n        /* \"verifier.sol\":3256:3259  p.X */\n      0x00\n      add\n      mload\n        /* \"verifier.sol\":3245:3250  input */\n      dup2\n        /* \"verifier.sol\":3251:3252  0 */\n      0x00\n        /* \"verifier.sol\":3245:3253  input[0] */\n      0x03\n      dup2\n      lt\n      tag_78\n      jumpi\n      tag_79\n      tag_20\n      jump\t// in\n    tag_79:\n    tag_78:\n      0x20\n      mul\n      add\n        /* \"verifier.sol\":3245:3259  input[0] = p.X */\n      dup2\n      dup2\n      mstore\n      pop\n      pop\n        /* \"verifier.sol\":3280:3281  p */\n      dup4\n        /* \"verifier.sol\":3280:3283  p.Y */\n      0x20\n      add\n      mload\n        /* \"verifier.sol\":3269:3274  input */\n      dup2\n        /* \"verifier.sol\":3275:3276  1 */\n      0x01\n        /* \"verifier.sol\":3269:3277  input[1] */\n      0x03\n      dup2\n      lt\n      tag_80\n      jumpi\n      tag_81\n      tag_20\n      jump\t// in\n    tag_81:\n    tag_80:\n      0x20\n      mul\n      add\n        /* \"verifier.sol\":3269:3283  input[1] = p.Y */\n      dup2\n      dup2\n      mstore\n      pop\n      pop\n        /* \"verifier.sol\":3304:3305  s */\n      dup3\n        /* \"verifier.sol\":3293:3298  input */\n      dup2\n        /* \"verifier.sol\":3299:3300  2 */\n      0x02\n        /* \"verifier.sol\":3293:3301  input[2] */\n      0x03\n      dup2\n      lt\n      tag_82\n      jumpi\n      tag_83\n      tag_20\n      jump\t// in\n    tag_83:\n    tag_82:\n      0x20\n      mul\n      add\n        /* \"verifier.sol\":3293:3305  input[2] = s */\n      dup2\n      dup2\n      mstore\n      pop\n      pop\n        /* \"verifier.sol\":3315:3327  bool success */\n      0x00\n        /* \"verifier.sol\":3419:3423  0x60 */\n      0x60\n        /* \"verifier.sol\":3416:3417  r */\n      dup4\n        /* \"verifier.sol\":3410:3414  0x80 */\n      0x80\n        /* \"verifier.sol\":3403:3408  input */\n      dup5\n        /* \"verifier.sol\":3400:3401  7 */\n      0x07\n        /* \"verifier.sol\":3393:3397  2000 */\n      0x07d0\n        /* \"verifier.sol\":3386:3391  gas() */\n      gas\n        /* \"verifier.sol\":3382:3398  sub(gas(), 2000) */\n      sub\n        /* \"verifier.sol\":3371:3424  staticcall(sub(gas(), 2000), 7, input, 0x80, r, 0x60) */\n      staticcall\n        /* \"verifier.sol\":3360:3424  success := staticcall(sub(gas(), 2000), 7, input, 0x80, r, 0x60) */\n      swap1\n      pop\n        /* \"verifier.sol\":3501:3508  success */\n      dup1\n        /* \"verifier.sol\":3514:3515  0 */\n      0x00\n        /* \"verifier.sol\":3509:3529  case 0 { invalid() } */\n      dup2\n      sub\n        /* \"verifier.sol\":3494:3529  switch success case 0 { invalid() } */\n      tag_84\n        /* \"verifier.sol\":3509:3529  case 0 { invalid() } */\n      jumpi\n        /* \"verifier.sol\":3518:3527  invalid() */\n      invalid\n        /* \"verifier.sol\":3494:3529  switch success case 0 { invalid() } */\n    tag_84:\n      pop\n        /* \"verifier.sol\":3557:3564  success */\n      dup1\n        /* \"verifier.sol\":3548:3565  require (success) */\n      tag_86\n      jumpi\n      0x00\n      dup1\n      revert\n    tag_86:\n        /* \"verifier.sol\":3205:3572  {... */\n      pop\n      pop\n        /* \"verifier.sol\":3118:3572  function scalar_mul(G1Point memory p, uint s) internal view returns (G1Point memory r) {... */\n      swap3\n      swap2\n      pop\n      pop\n      jump\t// out\n        /* \"verifier.sol\":2468:2961  function addition(G1Point memory p1, G1Point memory p2) internal view returns (G1Point memory r) {... */\n    tag_49:\n        /* \"verifier.sol\":2547:2563  G1Point memory r */\n      tag_87\n      tag_69\n      jump\t// in\n    tag_87:\n        /* \"verifier.sol\":2575:2595  uint[4] memory input */\n      tag_89\n      tag_90\n      jump\t// in\n    tag_89:\n        /* \"verifier.sol\":2616:2618  p1 */\n      dup4\n        /* \"verifier.sol\":2616:2620  p1.X */\n      0x00\n      add\n      mload\n        /* \"verifier.sol\":2605:2610  input */\n      dup2\n        /* \"verifier.sol\":2611:2612  0 */\n      0x00\n        /* \"verifier.sol\":2605:2613  input[0] */\n      0x04\n      dup2\n      lt\n      tag_91\n      jumpi\n      tag_92\n      tag_20\n      jump\t// in\n    tag_92:\n    tag_91:\n      0x20\n      mul\n      add\n        /* \"verifier.sol\":2605:2620  input[0] = p1.X */\n      dup2\n      dup2\n      mstore\n      pop\n      pop\n        /* \"verifier.sol\":2641:2643  p1 */\n      dup4\n        /* \"verifier.sol\":2641:2645  p1.Y */\n      0x20\n      add\n      mload\n        /* \"verifier.sol\":2630:2635  input */\n      dup2\n        /* \"verifier.sol\":2636:2637  1 */\n      0x01\n        /* \"verifier.sol\":2630:2638  input[1] */\n      0x04\n      dup2\n      lt\n      tag_93\n      jumpi\n      tag_94\n      tag_20\n      jump\t// in\n    tag_94:\n    tag_93:\n      0x20\n      mul\n      add\n        /* \"verifier.sol\":2630:2645  input[1] = p1.Y */\n      dup2\n      dup2\n      mstore\n      pop\n      pop\n        /* \"verifier.sol\":2666:2668  p2 */\n      dup3\n        /* \"verifier.sol\":2666:2670  p2.X */\n      0x00\n      add\n      mload\n        /* \"verifier.sol\":2655:2660  input */\n      dup2\n        /* \"verifier.sol\":2661:2662  2 */\n      0x02\n        /* \"verifier.sol\":2655:2663  input[2] */\n      0x04\n      dup2\n      lt\n      tag_95\n      jumpi\n      tag_96\n      tag_20\n      jump\t// in\n    tag_96:\n    tag_95:\n      0x20\n      mul\n      add\n        /* \"verifier.sol\":2655:2670  input[2] = p2.X */\n      dup2\n      dup2\n      mstore\n      pop\n      pop\n        /* \"verifier.sol\":2691:2693  p2 */\n      dup3\n        /* \"verifier.sol\":2691:2695  p2.Y */\n      0x20\n      add\n      mload\n        /* \"verifier.sol\":2680:2685  input */\n      dup2\n        /* \"verifier.sol\":2686:2687  3 */\n      0x03\n        /* \"verifier.sol\":2680:2688  input[3] */\n      0x04\n      dup2\n      lt\n      tag_97\n      jumpi\n      tag_98\n      tag_20\n      jump\t// in\n    tag_98:\n    tag_97:\n      0x20\n      mul\n      add\n        /* \"verifier.sol\":2680:2695  input[3] = p2.Y */\n      dup2\n      dup2\n      mstore\n      pop\n      pop\n        /* \"verifier.sol\":2705:2717  bool success */\n      0x00\n        /* \"verifier.sol\":2809:2813  0x60 */\n      0x60\n        /* \"verifier.sol\":2806:2807  r */\n      dup4\n        /* \"verifier.sol\":2800:2804  0xc0 */\n      0xc0\n        /* \"verifier.sol\":2793:2798  input */\n      dup5\n        /* \"verifier.sol\":2790:2791  6 */\n      0x06\n        /* \"verifier.sol\":2783:2787  2000 */\n      0x07d0\n        /* \"verifier.sol\":2776:2781  gas() */\n      gas\n        /* \"verifier.sol\":2772:2788  sub(gas(), 2000) */\n      sub\n        /* \"verifier.sol\":2761:2814  staticcall(sub(gas(), 2000), 6, input, 0xc0, r, 0x60) */\n      staticcall\n        /* \"verifier.sol\":2750:2814  success := staticcall(sub(gas(), 2000), 6, input, 0xc0, r, 0x60) */\n      swap1\n      pop\n        /* \"verifier.sol\":2891:2898  success */\n      dup1\n        /* \"verifier.sol\":2904:2905  0 */\n      0x00\n        /* \"verifier.sol\":2899:2919  case 0 { invalid() } */\n      dup2\n      sub\n        /* \"verifier.sol\":2884:2919  switch success case 0 { invalid() } */\n      tag_99\n        /* \"verifier.sol\":2899:2919  case 0 { invalid() } */\n      jumpi\n        /* \"verifier.sol\":2908:2917  invalid() */\n      invalid\n        /* \"verifier.sol\":2884:2919  switch success case 0 { invalid() } */\n    tag_99:\n      pop\n        /* \"verifier.sol\":2946:2953  success */\n      dup1\n        /* \"verifier.sol\":2938:2954  require(success) */\n      tag_101\n      jumpi\n      0x00\n      dup1\n      revert\n    tag_101:\n        /* \"verifier.sol\":2565:2961  {... */\n      pop\n      pop\n        /* \"verifier.sol\":2468:2961  function addition(G1Point memory p1, G1Point memory p2) internal view returns (G1Point memory r) {... */\n      swap3\n      swap2\n      pop\n      pop\n      jump\t// out\n        /* \"verifier.sol\":2077:2417  function negate(G1Point memory p) pure internal returns (G1Point memory) {... */\n    tag_56:\n        /* \"verifier.sol\":2134:2148  G1Point memory */\n      tag_102\n      tag_69\n      jump\t// in\n    tag_102:\n        /* \"verifier.sol\":2212:2218  uint q */\n      0x00\n        /* \"verifier.sol\":2221:2298  21888242871839275222246405745257275088696311157297823662689037894645226208583 */\n      0x30644e72e131a029b85045b68181585d97816a916871ca8d3c208c16d87cfd47\n        /* \"verifier.sol\":2212:2298  uint q = 21888242871839275222246405745257275088696311157297823662689037894645226208583 */\n      swap1\n      pop\n        /* \"verifier.sol\":2319:2320  0 */\n      0x00\n        /* \"verifier.sol\":2312:2313  p */\n      dup4\n        /* \"verifier.sol\":2312:2315  p.X */\n      0x00\n      add\n      mload\n        /* \"verifier.sol\":2312:2320  p.X == 0 */\n      eq\n        /* \"verifier.sol\":2312:2332  p.X == 0 && p.Y == 0 */\n      dup1\n      iszero\n      tag_104\n      jumpi\n      pop\n        /* \"verifier.sol\":2331:2332  0 */\n      0x00\n        /* \"verifier.sol\":2324:2325  p */\n      dup4\n        /* \"verifier.sol\":2324:2327  p.Y */\n      0x20\n      add\n      mload\n        /* \"verifier.sol\":2324:2332  p.Y == 0 */\n      eq\n        /* \"verifier.sol\":2312:2332  p.X == 0 && p.Y == 0 */\n    tag_104:\n        /* \"verifier.sol\":2308:2366  if (p.X == 0 && p.Y == 0)... */\n      iszero\n      tag_105\n      jumpi\n        /* \"verifier.sol\":2353:2366  G1Point(0, 0) */\n      mload(0x40)\n      dup1\n      0x40\n      add\n      0x40\n      mstore\n      dup1\n        /* \"verifier.sol\":2361:2362  0 */\n      0x00\n        /* \"verifier.sol\":2353:2366  G1Point(0, 0) */\n      dup2\n      mstore\n      0x20\n      add\n        /* \"verifier.sol\":2364:2365  0 */\n      0x00\n        /* \"verifier.sol\":2353:2366  G1Point(0, 0) */\n      dup2\n      mstore\n      pop\n        /* \"verifier.sol\":2346:2366  return G1Point(0, 0) */\n      swap2\n      pop\n      pop\n      jump(tag_103)\n        /* \"verifier.sol\":2308:2366  if (p.X == 0 && p.Y == 0)... */\n    tag_105:\n        /* \"verifier.sol\":2383:2410  G1Point(p.X, q - (p.Y % q)) */\n      mload(0x40)\n      dup1\n      0x40\n      add\n      0x40\n      mstore\n      dup1\n        /* \"verifier.sol\":2391:2392  p */\n      dup5\n        /* \"verifier.sol\":2391:2394  p.X */\n      0x00\n      add\n      mload\n        /* \"verifier.sol\":2383:2410  G1Point(p.X, q - (p.Y % q)) */\n      dup2\n      mstore\n      0x20\n      add\n        /* \"verifier.sol\":2407:2408  q */\n      dup3\n        /* \"verifier.sol\":2401:2402  p */\n      dup6\n        /* \"verifier.sol\":2401:2404  p.Y */\n      0x20\n      add\n      mload\n        /* \"verifier.sol\":2401:2408  p.Y % q */\n      tag_106\n      swap2\n      swap1\n      tag_107\n      jump\t// in\n    tag_106:\n        /* \"verifier.sol\":2396:2397  q */\n      dup4\n        /* \"verifier.sol\":2396:2409  q - (p.Y % q) */\n      tag_108\n      swap2\n      swap1\n      tag_109\n      jump\t// in\n    tag_108:\n        /* \"verifier.sol\":2383:2410  G1Point(p.X, q - (p.Y % q)) */\n      dup2\n      mstore\n      pop\n        /* \"verifier.sol\":2376:2410  return G1Point(p.X, q - (p.Y % q)) */\n      swap2\n      pop\n      pop\n        /* \"verifier.sol\":2077:2417  function negate(G1Point memory p) pure internal returns (G1Point memory) {... */\n    tag_103:\n      swap2\n      swap1\n      pop\n      jump\t// out\n        /* \"verifier.sol\":5714:6266  function pairingProd4(... */\n    tag_59:\n        /* \"verifier.sol\":5965:5969  bool */\n      0x00\n        /* \"verifier.sol\":5981:6000  G1Point[] memory p1 */\n      dup1\n        /* \"verifier.sol\":6017:6018  4 */\n      0x04\n        /* \"verifier.sol\":6003:6019  new G1Point[](4) */\n      0xffffffffffffffff\n      dup2\n      gt\n      iszero\n      tag_111\n      jumpi\n      tag_112\n      tag_13\n      jump\t// in\n    tag_112:\n    tag_111:\n      mload(0x40)\n      swap1\n      dup1\n      dup3\n      mstore\n      dup1\n      0x20\n      mul\n      0x20\n      add\n      dup3\n      add\n      0x40\n      mstore\n      dup1\n      iszero\n      tag_113\n      jumpi\n      dup2\n      0x20\n      add\n    tag_114:\n      tag_115\n      tag_69\n      jump\t// in\n    tag_115:\n      dup2\n      mstore\n      0x20\n      add\n      swap1\n      0x01\n      swap1\n      sub\n      swap1\n      dup2\n      tag_114\n      jumpi\n      swap1\n      pop\n    tag_113:\n      pop\n        /* \"verifier.sol\":5981:6019  G1Point[] memory p1 = new G1Point[](4) */\n      swap1\n      pop\n        /* \"verifier.sol\":6029:6048  G2Point[] memory p2 */\n      0x00\n        /* \"verifier.sol\":6065:6066  4 */\n      0x04\n        /* \"verifier.sol\":6051:6067  new G2Point[](4) */\n      0xffffffffffffffff\n      dup2\n      gt\n      iszero\n      tag_116\n      jumpi\n      tag_117\n      tag_13\n      jump\t// in\n    tag_117:\n    tag_116:\n      mload(0x40)\n      swap1\n      dup1\n      dup3\n      mstore\n      dup1\n      0x20\n      mul\n      0x20\n      add\n      dup3\n      add\n      0x40\n      mstore\n      dup1\n      iszero\n      tag_118\n      jumpi\n      dup2\n      0x20\n      add\n    tag_119:\n      tag_120\n      tag_121\n      jump\t// in\n    tag_120:\n      dup2\n      mstore\n      0x20\n      add\n      swap1\n      0x01\n      swap1\n      sub\n      swap1\n      dup2\n      tag_119\n      jumpi\n      swap1\n      pop\n    tag_118:\n      pop\n        /* \"verifier.sol\":6029:6067  G2Point[] memory p2 = new G2Point[](4) */\n      swap1\n      pop\n        /* \"verifier.sol\":6085:6087  a1 */\n      dup11\n        /* \"verifier.sol\":6077:6079  p1 */\n      dup3\n        /* \"verifier.sol\":6080:6081  0 */\n      0x00\n        /* \"verifier.sol\":6077:6082  p1[0] */\n      dup2\n      mload\n      dup2\n      lt\n      tag_122\n      jumpi\n      tag_123\n      tag_20\n      jump\t// in\n    tag_123:\n    tag_122:\n      0x20\n      mul\n      0x20\n      add\n      add\n        /* \"verifier.sol\":6077:6087  p1[0] = a1 */\n      dup2\n      swap1\n      mstore\n      pop\n        /* \"verifier.sol\":6105:6107  b1 */\n      dup9\n        /* \"verifier.sol\":6097:6099  p1 */\n      dup3\n        /* \"verifier.sol\":6100:6101  1 */\n      0x01\n        /* \"verifier.sol\":6097:6102  p1[1] */\n      dup2\n      mload\n      dup2\n      lt\n      tag_124\n      jumpi\n      tag_125\n      tag_20\n      jump\t// in\n    tag_125:\n    tag_124:\n      0x20\n      mul\n      0x20\n      add\n      add\n        /* \"verifier.sol\":6097:6107  p1[1] = b1 */\n      dup2\n      swap1\n      mstore\n      pop\n        /* \"verifier.sol\":6125:6127  c1 */\n      dup7\n        /* \"verifier.sol\":6117:6119  p1 */\n      dup3\n        /* \"verifier.sol\":6120:6121  2 */\n      0x02\n        /* \"verifier.sol\":6117:6122  p1[2] */\n      dup2\n      mload\n      dup2\n      lt\n      tag_126\n      jumpi\n      tag_127\n      tag_20\n      jump\t// in\n    tag_127:\n    tag_126:\n      0x20\n      mul\n      0x20\n      add\n      add\n        /* \"verifier.sol\":6117:6127  p1[2] = c1 */\n      dup2\n      swap1\n      mstore\n      pop\n        /* \"verifier.sol\":6145:6147  d1 */\n      dup5\n        /* \"verifier.sol\":6137:6139  p1 */\n      dup3\n        /* \"verifier.sol\":6140:6141  3 */\n      0x03\n        /* \"verifier.sol\":6137:6142  p1[3] */\n      dup2\n      mload\n      dup2\n      lt\n      tag_128\n      jumpi\n      tag_129\n      tag_20\n      jump\t// in\n    tag_129:\n    tag_128:\n      0x20\n      mul\n      0x20\n      add\n      add\n        /* \"verifier.sol\":6137:6147  p1[3] = d1 */\n      dup2\n      swap1\n      mstore\n      pop\n        /* \"verifier.sol\":6165:6167  a2 */\n      dup10\n        /* \"verifier.sol\":6157:6159  p2 */\n      dup2\n        /* \"verifier.sol\":6160:6161  0 */\n      0x00\n        /* \"verifier.sol\":6157:6162  p2[0] */\n      dup2\n      mload\n      dup2\n      lt\n      tag_130\n      jumpi\n      tag_131\n      tag_20\n      jump\t// in\n    tag_131:\n    tag_130:\n      0x20\n      mul\n      0x20\n      add\n      add\n        /* \"verifier.sol\":6157:6167  p2[0] = a2 */\n      dup2\n      swap1\n      mstore\n      pop\n        /* \"verifier.sol\":6185:6187  b2 */\n      dup8\n        /* \"verifier.sol\":6177:6179  p2 */\n      dup2\n        /* \"verifier.sol\":6180:6181  1 */\n      0x01\n        /* \"verifier.sol\":6177:6182  p2[1] */\n      dup2\n      mload\n      dup2\n      lt\n      tag_132\n      jumpi\n      tag_133\n      tag_20\n      jump\t// in\n    tag_133:\n    tag_132:\n      0x20\n      mul\n      0x20\n      add\n      add\n        /* \"verifier.sol\":6177:6187  p2[1] = b2 */\n      dup2\n      swap1\n      mstore\n      pop\n        /* \"verifier.sol\":6205:6207  c2 */\n      dup6\n        /* \"verifier.sol\":6197:6199  p2 */\n      dup2\n        /* \"verifier.sol\":6200:6201  2 */\n      0x02\n        /* \"verifier.sol\":6197:6202  p2[2] */\n      dup2\n      mload\n      dup2\n      lt\n      tag_134\n      jumpi\n      tag_135\n      tag_20\n      jump\t// in\n    tag_135:\n    tag_134:\n      0x20\n      mul\n      0x20\n      add\n      add\n        /* \"verifier.sol\":6197:6207  p2[2] = c2 */\n      dup2\n      swap1\n      mstore\n      pop\n        /* \"verifier.sol\":6225:6227  d2 */\n      dup4\n        /* \"verifier.sol\":6217:6219  p2 */\n      dup2\n        /* \"verifier.sol\":6220:6221  3 */\n      0x03\n        /* \"verifier.sol\":6217:6222  p2[3] */\n      dup2\n      mload\n      dup2\n      lt\n      tag_136\n      jumpi\n      tag_137\n      tag_20\n      jump\t// in\n    tag_137:\n    tag_136:\n      0x20\n      mul\n      0x20\n      add\n      add\n        /* \"verifier.sol\":6217:6227  p2[3] = d2 */\n      dup2\n      swap1\n      mstore\n      pop\n        /* \"verifier.sol\":6244:6259  pairing(p1, p2) */\n      tag_138\n        /* \"verifier.sol\":6252:6254  p1 */\n      dup3\n        /* \"verifier.sol\":6256:6258  p2 */\n      dup3\n        /* \"verifier.sol\":6244:6251  pairing */\n      tag_139\n        /* \"verifier.sol\":6244:6259  pairing(p1, p2) */\n      jump\t// in\n    tag_138:\n        /* \"verifier.sol\":6237:6259  return pairing(p1, p2) */\n      swap3\n      pop\n      pop\n      pop\n        /* \"verifier.sol\":5714:6266  function pairingProd4(... */\n      swap9\n      swap8\n      pop\n      pop\n      pop\n      pop\n      pop\n      pop\n      pop\n      pop\n      jump\t// out\n        /* \"verifier.sol\":3783:4706  function pairing(G1Point[] memory p1, G2Point[] memory p2) internal view returns (bool) {... */\n    tag_139:\n        /* \"verifier.sol\":3865:3869  bool */\n      0x00\n        /* \"verifier.sol\":3902:3904  p2 */\n      dup2\n        /* \"verifier.sol\":3902:3911  p2.length */\n      mload\n        /* \"verifier.sol\":3889:3891  p1 */\n      dup4\n        /* \"verifier.sol\":3889:3898  p1.length */\n      mload\n        /* \"verifier.sol\":3889:3911  p1.length == p2.length */\n      eq\n        /* \"verifier.sol\":3881:3912  require(p1.length == p2.length) */\n      tag_141\n      jumpi\n      0x00\n      dup1\n      revert\n    tag_141:\n        /* \"verifier.sol\":3922:3935  uint elements */\n      0x00\n        /* \"verifier.sol\":3938:3940  p1 */\n      dup4\n        /* \"verifier.sol\":3938:3947  p1.length */\n      mload\n        /* \"verifier.sol\":3922:3947  uint elements = p1.length */\n      swap1\n      pop\n        /* \"verifier.sol\":3957:3971  uint inputSize */\n      0x00\n        /* \"verifier.sol\":3985:3986  6 */\n      0x06\n        /* \"verifier.sol\":3974:3982  elements */\n      dup3\n        /* \"verifier.sol\":3974:3986  elements * 6 */\n      tag_142\n      swap2\n      swap1\n      tag_143\n      jump\t// in\n    tag_142:\n        /* \"verifier.sol\":3957:3986  uint inputSize = elements * 6 */\n      swap1\n      pop\n        /* \"verifier.sol\":3996:4015  uint[] memory input */\n      0x00\n        /* \"verifier.sol\":4029:4038  inputSize */\n      dup2\n        /* \"verifier.sol\":4018:4039  new uint[](inputSize) */\n      0xffffffffffffffff\n      dup2\n      gt\n      iszero\n      tag_144\n      jumpi\n      tag_145\n      tag_13\n      jump\t// in\n    tag_145:\n    tag_144:\n      mload(0x40)\n      swap1\n      dup1\n      dup3\n      mstore\n      dup1\n      0x20\n      mul\n      0x20\n      add\n      dup3\n      add\n      0x40\n      mstore\n      dup1\n      iszero\n      tag_146\n      jumpi\n      dup2\n      0x20\n      add\n      0x20\n      dup3\n      mul\n      dup1\n      calldatasize\n      dup4\n      calldatacopy\n      dup1\n      dup3\n      add\n      swap2\n      pop\n      pop\n      swap1\n      pop\n    tag_146:\n      pop\n        /* \"verifier.sol\":3996:4039  uint[] memory input = new uint[](inputSize) */\n      swap1\n      pop\n        /* \"verifier.sol\":4054:4060  uint i */\n      0x00\n        /* \"verifier.sol\":4049:4356  for (uint i = 0; i < elements; i++)... */\n    tag_147:\n        /* \"verifier.sol\":4070:4078  elements */\n      dup4\n        /* \"verifier.sol\":4066:4067  i */\n      dup2\n        /* \"verifier.sol\":4066:4078  i < elements */\n      lt\n        /* \"verifier.sol\":4049:4356  for (uint i = 0; i < elements; i++)... */\n      iszero\n      tag_148\n      jumpi\n        /* \"verifier.sol\":4126:4128  p1 */\n      dup7\n        /* \"verifier.sol\":4129:4130  i */\n      dup2\n        /* \"verifier.sol\":4126:4131  p1[i] */\n      dup2\n      mload\n      dup2\n      lt\n      tag_150\n      jumpi\n      tag_151\n      tag_20\n      jump\t// in\n    tag_151:\n    tag_150:\n      0x20\n      mul\n      0x20\n      add\n      add\n      mload\n        /* \"verifier.sol\":4126:4133  p1[i].X */\n      0x00\n      add\n      mload\n        /* \"verifier.sol\":4107:4112  input */\n      dup3\n        /* \"verifier.sol\":4121:4122  0 */\n      0x00\n        /* \"verifier.sol\":4117:4118  6 */\n      0x06\n        /* \"verifier.sol\":4113:4114  i */\n      dup5\n        /* \"verifier.sol\":4113:4118  i * 6 */\n      tag_152\n      swap2\n      swap1\n      tag_143\n      jump\t// in\n    tag_152:\n        /* \"verifier.sol\":4113:4122  i * 6 + 0 */\n      tag_153\n      swap2\n      swap1\n      tag_33\n      jump\t// in\n    tag_153:\n        /* \"verifier.sol\":4107:4123  input[i * 6 + 0] */\n      dup2\n      mload\n      dup2\n      lt\n      tag_154\n      jumpi\n      tag_155\n      tag_20\n      jump\t// in\n    tag_155:\n    tag_154:\n      0x20\n      mul\n      0x20\n      add\n      add\n        /* \"verifier.sol\":4107:4133  input[i * 6 + 0] = p1[i].X */\n      dup2\n      dup2\n      mstore\n      pop\n      pop\n        /* \"verifier.sol\":4166:4168  p1 */\n      dup7\n        /* \"verifier.sol\":4169:4170  i */\n      dup2\n        /* \"verifier.sol\":4166:4171  p1[i] */\n      dup2\n      mload\n      dup2\n      lt\n      tag_156\n      jumpi\n      tag_157\n      tag_20\n      jump\t// in\n    tag_157:\n    tag_156:\n      0x20\n      mul\n      0x20\n      add\n      add\n      mload\n        /* \"verifier.sol\":4166:4173  p1[i].Y */\n      0x20\n      add\n      mload\n        /* \"verifier.sol\":4147:4152  input */\n      dup3\n        /* \"verifier.sol\":4161:4162  1 */\n      0x01\n        /* \"verifier.sol\":4157:4158  6 */\n      0x06\n        /* \"verifier.sol\":4153:4154  i */\n      dup5\n        /* \"verifier.sol\":4153:4158  i * 6 */\n      tag_158\n      swap2\n      swap1\n      tag_143\n      jump\t// in\n    tag_158:\n        /* \"verifier.sol\":4153:4162  i * 6 + 1 */\n      tag_159\n      swap2\n      swap1\n      tag_33\n      jump\t// in\n    tag_159:\n        /* \"verifier.sol\":4147:4163  input[i * 6 + 1] */\n      dup2\n      mload\n      dup2\n      lt\n      tag_160\n      jumpi\n      tag_161\n      tag_20\n      jump\t// in\n    tag_161:\n    tag_160:\n      0x20\n      mul\n      0x20\n      add\n      add\n        /* \"verifier.sol\":4147:4173  input[i * 6 + 1] = p1[i].Y */\n      dup2\n      dup2\n      mstore\n      pop\n      pop\n        /* \"verifier.sol\":4206:4208  p2 */\n      dup6\n        /* \"verifier.sol\":4209:4210  i */\n      dup2\n        /* \"verifier.sol\":4206:4211  p2[i] */\n      dup2\n      mload\n      dup2\n      lt\n      tag_162\n      jumpi\n      tag_163\n      tag_20\n      jump\t// in\n    tag_163:\n    tag_162:\n      0x20\n      mul\n      0x20\n      add\n      add\n      mload\n        /* \"verifier.sol\":4206:4213  p2[i].X */\n      0x00\n      add\n      mload\n        /* \"verifier.sol\":4214:4215  1 */\n      0x01\n        /* \"verifier.sol\":4206:4216  p2[i].X[1] */\n      0x02\n      dup2\n      lt\n      tag_164\n      jumpi\n      tag_165\n      tag_20\n      jump\t// in\n    tag_165:\n    tag_164:\n      0x20\n      mul\n      add\n      mload\n        /* \"verifier.sol\":4187:4192  input */\n      dup3\n        /* \"verifier.sol\":4201:4202  2 */\n      0x02\n        /* \"verifier.sol\":4197:4198  6 */\n      0x06\n        /* \"verifier.sol\":4193:4194  i */\n      dup5\n        /* \"verifier.sol\":4193:4198  i * 6 */\n      tag_166\n      swap2\n      swap1\n      tag_143\n      jump\t// in\n    tag_166:\n        /* \"verifier.sol\":4193:4202  i * 6 + 2 */\n      tag_167\n      swap2\n      swap1\n      tag_33\n      jump\t// in\n    tag_167:\n        /* \"verifier.sol\":4187:4203  input[i * 6 + 2] */\n      dup2\n      mload\n      dup2\n      lt\n      tag_168\n      jumpi\n      tag_169\n      tag_20\n      jump\t// in\n    tag_169:\n    tag_168:\n      0x20\n      mul\n      0x20\n      add\n      add\n        /* \"verifier.sol\":4187:4216  input[i * 6 + 2] = p2[i].X[1] */\n      dup2\n      dup2\n      mstore\n      pop\n      pop\n        /* \"verifier.sol\":4249:4251  p2 */\n      dup6\n        /* \"verifier.sol\":4252:4253  i */\n      dup2\n        /* \"verifier.sol\":4249:4254  p2[i] */\n      dup2\n      mload\n      dup2\n      lt\n      tag_170\n      jumpi\n      tag_171\n      tag_20\n      jump\t// in\n    tag_171:\n    tag_170:\n      0x20\n      mul\n      0x20\n      add\n      add\n      mload\n        /* \"verifier.sol\":4249:4256  p2[i].X */\n      0x00\n      add\n      mload\n        /* \"verifier.sol\":4257:4258  0 */\n      0x00\n        /* \"verifier.sol\":4249:4259  p2[i].X[0] */\n      0x02\n      dup2\n      lt\n      tag_172\n      jumpi\n      tag_173\n      tag_20\n      jump\t// in\n    tag_173:\n    tag_172:\n      0x20\n      mul\n      add\n      mload\n        /* \"verifier.sol\":4230:4235  input */\n      dup3\n        /* \"verifier.sol\":4244:4245  3 */\n      0x03\n        /* \"verifier.sol\":4240:4241  6 */\n      0x06\n        /* \"verifier.sol\":4236:4237  i */\n      dup5\n        /* \"verifier.sol\":4236:4241  i * 6 */\n      tag_174\n      swap2\n      swap1\n      tag_143\n      jump\t// in\n    tag_174:\n        /* \"verifier.sol\":4236:4245  i * 6 + 3 */\n      tag_175\n      swap2\n      swap1\n      tag_33\n      jump\t// in\n    tag_175:\n        /* \"verifier.sol\":4230:4246  input[i * 6 + 3] */\n      dup2\n      mload\n      dup2\n      lt\n      tag_176\n      jumpi\n      tag_177\n      tag_20\n      jump\t// in\n    tag_177:\n    tag_176:\n      0x20\n      mul\n      0x20\n      add\n      add\n        /* \"verifier.sol\":4230:4259  input[i * 6 + 3] = p2[i].X[0] */\n      dup2\n      dup2\n      mstore\n      pop\n      pop\n        /* \"verifier.sol\":4292:4294  p2 */\n      dup6\n        /* \"verifier.sol\":4295:4296  i */\n      dup2\n        /* \"verifier.sol\":4292:4297  p2[i] */\n      dup2\n      mload\n      dup2\n      lt\n      tag_178\n      jumpi\n      tag_179\n      tag_20\n      jump\t// in\n    tag_179:\n    tag_178:\n      0x20\n      mul\n      0x20\n      add\n      add\n      mload\n        /* \"verifier.sol\":4292:4299  p2[i].Y */\n      0x20\n      add\n      mload\n        /* \"verifier.sol\":4300:4301  1 */\n      0x01\n        /* \"verifier.sol\":4292:4302  p2[i].Y[1] */\n      0x02\n      dup2\n      lt\n      tag_180\n      jumpi\n      tag_181\n      tag_20\n      jump\t// in\n    tag_181:\n    tag_180:\n      0x20\n      mul\n      add\n      mload\n        /* \"verifier.sol\":4273:4278  input */\n      dup3\n        /* \"verifier.sol\":4287:4288  4 */\n      0x04\n        /* \"verifier.sol\":4283:4284  6 */\n      0x06\n        /* \"verifier.sol\":4279:4280  i */\n      dup5\n        /* \"verifier.sol\":4279:4284  i * 6 */\n      tag_182\n      swap2\n      swap1\n      tag_143\n      jump\t// in\n    tag_182:\n        /* \"verifier.sol\":4279:4288  i * 6 + 4 */\n      tag_183\n      swap2\n      swap1\n      tag_33\n      jump\t// in\n    tag_183:\n        /* \"verifier.sol\":4273:4289  input[i * 6 + 4] */\n      dup2\n      mload\n      dup2\n      lt\n      tag_184\n      jumpi\n      tag_185\n      tag_20\n      jump\t// in\n    tag_185:\n    tag_184:\n      0x20\n      mul\n      0x20\n      add\n      add\n        /* \"verifier.sol\":4273:4302  input[i * 6 + 4] = p2[i].Y[1] */\n      dup2\n      dup2\n      mstore\n      pop\n      pop\n        /* \"verifier.sol\":4335:4337  p2 */\n      dup6\n        /* \"verifier.sol\":4338:4339  i */\n      dup2\n        /* \"verifier.sol\":4335:4340  p2[i] */\n      dup2\n      mload\n      dup2\n      lt\n      tag_186\n      jumpi\n      tag_187\n      tag_20\n      jump\t// in\n    tag_187:\n    tag_186:\n      0x20\n      mul\n      0x20\n      add\n      add\n      mload\n        /* \"verifier.sol\":4335:4342  p2[i].Y */\n      0x20\n      add\n      mload\n        /* \"verifier.sol\":4343:4344  0 */\n      0x00\n        /* \"verifier.sol\":4335:4345  p2[i].Y[0] */\n      0x02\n      dup2\n      lt\n      tag_188\n      jumpi\n      tag_189\n      tag_20\n      jump\t// in\n    tag_189:\n    tag_188:\n      0x20\n      mul\n      add\n      mload\n        /* \"verifier.sol\":4316:4321  input */\n      dup3\n        /* \"verifier.sol\":4330:4331  5 */\n      0x05\n        /* \"verifier.sol\":4326:4327  6 */\n      0x06\n        /* \"verifier.sol\":4322:4323  i */\n      dup5\n        /* \"verifier.sol\":4322:4327  i * 6 */\n      tag_190\n      swap2\n      swap1\n      tag_143\n      jump\t// in\n    tag_190:\n        /* \"verifier.sol\":4322:4331  i * 6 + 5 */\n      tag_191\n      swap2\n      swap1\n      tag_33\n      jump\t// in\n    tag_191:\n        /* \"verifier.sol\":4316:4332  input[i * 6 + 5] */\n      dup2\n      mload\n      dup2\n      lt\n      tag_192\n      jumpi\n      tag_193\n      tag_20\n      jump\t// in\n    tag_193:\n    tag_192:\n      0x20\n      mul\n      0x20\n      add\n      add\n        /* \"verifier.sol\":4316:4345  input[i * 6 + 5] = p2[i].Y[0] */\n      dup2\n      dup2\n      mstore\n      pop\n      pop\n        /* \"verifier.sol\":4080:4083  i++ */\n      dup1\n      dup1\n      tag_194\n      swap1\n      tag_24\n      jump\t// in\n    tag_194:\n      swap2\n      pop\n      pop\n        /* \"verifier.sol\":4049:4356  for (uint i = 0; i < elements; i++)... */\n      jump(tag_147)\n    tag_148:\n      pop\n        /* \"verifier.sol\":4365:4383  uint[1] memory out */\n      tag_195\n      tag_196\n      jump\t// in\n    tag_195:\n        /* \"verifier.sol\":4393:4405  bool success */\n      0x00\n        /* \"verifier.sol\":4526:4530  0x20 */\n      0x20\n        /* \"verifier.sol\":4521:4524  out */\n      dup3\n        /* \"verifier.sol\":4514:4518  0x20 */\n      0x20\n        /* \"verifier.sol\":4503:4512  inputSize */\n      dup7\n        /* \"verifier.sol\":4499:4519  mul(inputSize, 0x20) */\n      mul\n        /* \"verifier.sol\":4492:4496  0x20 */\n      0x20\n        /* \"verifier.sol\":4485:4490  input */\n      dup7\n        /* \"verifier.sol\":4481:4497  add(input, 0x20) */\n      add\n        /* \"verifier.sol\":4478:4479  8 */\n      0x08\n        /* \"verifier.sol\":4471:4475  2000 */\n      0x07d0\n        /* \"verifier.sol\":4464:4469  gas() */\n      gas\n        /* \"verifier.sol\":4460:4476  sub(gas(), 2000) */\n      sub\n        /* \"verifier.sol\":4449:4531  staticcall(sub(gas(), 2000), 8, add(input, 0x20), mul(inputSize, 0x20), out, 0x20) */\n      staticcall\n        /* \"verifier.sol\":4438:4531  success := staticcall(sub(gas(), 2000), 8, add(input, 0x20), mul(inputSize, 0x20), out, 0x20) */\n      swap1\n      pop\n        /* \"verifier.sol\":4608:4615  success */\n      dup1\n        /* \"verifier.sol\":4621:4622  0 */\n      0x00\n        /* \"verifier.sol\":4616:4636  case 0 { invalid() } */\n      dup2\n      sub\n        /* \"verifier.sol\":4601:4636  switch success case 0 { invalid() } */\n      tag_197\n        /* \"verifier.sol\":4616:4636  case 0 { invalid() } */\n      jumpi\n        /* \"verifier.sol\":4625:4634  invalid() */\n      invalid\n        /* \"verifier.sol\":4601:4636  switch success case 0 { invalid() } */\n    tag_197:\n      pop\n        /* \"verifier.sol\":4663:4670  success */\n      dup1\n        /* \"verifier.sol\":4655:4671  require(success) */\n      tag_199\n      jumpi\n      0x00\n      dup1\n      revert\n    tag_199:\n        /* \"verifier.sol\":4698:4699  0 */\n      0x00\n        /* \"verifier.sol\":4688:4691  out */\n      dup3\n        /* \"verifier.sol\":4692:4693  0 */\n      0x00\n        /* \"verifier.sol\":4688:4694  out[0] */\n      0x01\n      dup2\n      lt\n      tag_200\n      jumpi\n      tag_201\n      tag_20\n      jump\t// in\n    tag_201:\n    tag_200:\n      0x20\n      mul\n      add\n      mload\n        /* \"verifier.sol\":4688:4699  out[0] != 0 */\n      eq\n      iszero\n        /* \"verifier.sol\":4681:4699  return out[0] != 0 */\n      swap6\n      pop\n      pop\n      pop\n      pop\n      pop\n      pop\n        /* \"verifier.sol\":3783:4706  function pairing(G1Point[] memory p1, G2Point[] memory p2) internal view returns (bool) {... */\n      swap3\n      swap2\n      pop\n      pop\n      jump\t// out\n    tag_62:\n      mload(0x40)\n      dup1\n      0xa0\n      add\n      0x40\n      mstore\n      dup1\n      tag_202\n      tag_69\n      jump\t// in\n    tag_202:\n      dup2\n      mstore\n      0x20\n      add\n      tag_203\n      tag_121\n      jump\t// in\n    tag_203:\n      dup2\n      mstore\n      0x20\n      add\n      tag_204\n      tag_121\n      jump\t// in\n    tag_204:\n      dup2\n      mstore\n      0x20\n      add\n      tag_205\n      tag_121\n      jump\t// in\n    tag_205:\n      dup2\n      mstore\n      0x20\n      add\n      0x60\n      dup2\n      mstore\n      pop\n      swap1\n      jump\t// out\n    tag_69:\n      mload(0x40)\n      dup1\n      0x40\n      add\n      0x40\n      mstore\n      dup1\n      0x00\n      dup2\n      mstore\n      0x20\n      add\n      0x00\n      dup2\n      mstore\n      pop\n      swap1\n      jump\t// out\n    tag_77:\n      mload(0x40)\n      dup1\n      0x60\n      add\n      0x40\n      mstore\n      dup1\n      0x03\n      swap1\n      0x20\n      dup3\n      mul\n      dup1\n      calldatasize\n      dup4\n      calldatacopy\n      dup1\n      dup3\n      add\n      swap2\n      pop\n      pop\n      swap1\n      pop\n      pop\n      swap1\n      jump\t// out\n    tag_90:\n      mload(0x40)\n      dup1\n      0x80\n      add\n      0x40\n      mstore\n      dup1\n      0x04\n      swap1\n      0x20\n      dup3\n      mul\n      dup1\n      calldatasize\n      dup4\n      calldatacopy\n      dup1\n      dup3\n      add\n      swap2\n      pop\n      pop\n      swap1\n      pop\n      pop\n      swap1\n      jump\t// out\n    tag_121:\n      mload(0x40)\n      dup1\n      0x40\n      add\n      0x40\n      mstore\n      dup1\n      tag_206\n      tag_207\n      jump\t// in\n    tag_206:\n      dup2\n      mstore\n      0x20\n      add\n      tag_208\n      tag_207\n      jump\t// in\n    tag_208:\n      dup2\n      mstore\n      pop\n      swap1\n      jump\t// out\n    tag_196:\n      mload(0x40)\n      dup1\n      0x20\n      add\n      0x40\n      mstore\n      dup1\n      0x01\n      swap1\n      0x20\n      dup3\n      mul\n      dup1\n      calldatasize\n      dup4\n      calldatacopy\n      dup1\n      dup3\n      add\n      swap2\n      pop\n      pop\n      swap1\n      pop\n      pop\n      swap1\n      jump\t// out\n    tag_207:\n      mload(0x40)\n      dup1\n      0x40\n      add\n      0x40\n      mstore\n      dup1\n      0x02\n      swap1\n      0x20\n      dup3\n      mul\n      dup1\n      calldatasize\n      dup4\n      calldatacopy\n      dup1\n      dup3\n      add\n      swap2\n      pop\n      pop\n      swap1\n      pop\n      pop\n      swap1\n      jump\t// out\n        /* \"#utility.yul\":7:82   */\n    tag_209:\n        /* \"#utility.yul\":40:46   */\n      0x00\n        /* \"#utility.yul\":73:75   */\n      0x40\n        /* \"#utility.yul\":67:76   */\n      mload\n        /* \"#utility.yul\":57:76   */\n      swap1\n      pop\n        /* \"#utility.yul\":7:82   */\n      swap1\n      jump\t// out\n        /* \"#utility.yul\":88:205   */\n    tag_210:\n        /* \"#utility.yul\":197:198   */\n      0x00\n        /* \"#utility.yul\":194:195   */\n      dup1\n        /* \"#utility.yul\":187:199   */\n      revert\n        /* \"#utility.yul\":334:451   */\n    tag_212:\n        /* \"#utility.yul\":443:444   */\n      0x00\n        /* \"#utility.yul\":440:441   */\n      dup1\n        /* \"#utility.yul\":433:445   */\n      revert\n        /* \"#utility.yul\":457:559   */\n    tag_213:\n        /* \"#utility.yul\":498:504   */\n      0x00\n        /* \"#utility.yul\":549:551   */\n      0x1f\n        /* \"#utility.yul\":545:552   */\n      not\n        /* \"#utility.yul\":540:542   */\n      0x1f\n        /* \"#utility.yul\":533:538   */\n      dup4\n        /* \"#utility.yul\":529:543   */\n      add\n        /* \"#utility.yul\":525:553   */\n      and\n        /* \"#utility.yul\":515:553   */\n      swap1\n      pop\n        /* \"#utility.yul\":457:559   */\n      swap2\n      swap1\n      pop\n      jump\t// out\n        /* \"#utility.yul\":565:745   */\n    tag_13:\n        /* \"#utility.yul\":613:690   */\n      0x4e487b7100000000000000000000000000000000000000000000000000000000\n        /* \"#utility.yul\":610:611   */\n      0x00\n        /* \"#utility.yul\":603:691   */\n      mstore\n        /* \"#utility.yul\":710:714   */\n      0x41\n        /* \"#utility.yul\":707:708   */\n      0x04\n        /* \"#utility.yul\":700:715   */\n      mstore\n        /* \"#utility.yul\":734:738   */\n      0x24\n        /* \"#utility.yul\":731:732   */\n      0x00\n        /* \"#utility.yul\":724:739   */\n      revert\n        /* \"#utility.yul\":751:1032   */\n    tag_214:\n        /* \"#utility.yul\":834:861   */\n      tag_243\n        /* \"#utility.yul\":856:860   */\n      dup3\n        /* \"#utility.yul\":834:861   */\n      tag_213\n      jump\t// in\n    tag_243:\n        /* \"#utility.yul\":826:832   */\n      dup2\n        /* \"#utility.yul\":822:862   */\n      add\n        /* \"#utility.yul\":964:970   */\n      dup2\n        /* \"#utility.yul\":952:962   */\n      dup2\n        /* \"#utility.yul\":949:971   */\n      lt\n        /* \"#utility.yul\":928:946   */\n      0xffffffffffffffff\n        /* \"#utility.yul\":916:926   */\n      dup3\n        /* \"#utility.yul\":913:947   */\n      gt\n        /* \"#utility.yul\":910:972   */\n      or\n        /* \"#utility.yul\":907:995   */\n      iszero\n      tag_244\n      jumpi\n        /* \"#utility.yul\":975:993   */\n      tag_245\n      tag_13\n      jump\t// in\n    tag_245:\n        /* \"#utility.yul\":907:995   */\n    tag_244:\n        /* \"#utility.yul\":1015:1025   */\n      dup1\n        /* \"#utility.yul\":1011:1013   */\n      0x40\n        /* \"#utility.yul\":1004:1026   */\n      mstore\n        /* \"#utility.yul\":794:1032   */\n      pop\n        /* \"#utility.yul\":751:1032   */\n      pop\n      pop\n      jump\t// out\n        /* \"#utility.yul\":1038:1167   */\n    tag_215:\n        /* \"#utility.yul\":1072:1078   */\n      0x00\n        /* \"#utility.yul\":1099:1119   */\n      tag_247\n      tag_209\n      jump\t// in\n    tag_247:\n        /* \"#utility.yul\":1089:1119   */\n      swap1\n      pop\n        /* \"#utility.yul\":1128:1161   */\n      tag_248\n        /* \"#utility.yul\":1156:1160   */\n      dup3\n        /* \"#utility.yul\":1148:1154   */\n      dup3\n        /* \"#utility.yul\":1128:1161   */\n      tag_214\n      jump\t// in\n    tag_248:\n        /* \"#utility.yul\":1038:1167   */\n      swap2\n      swap1\n      pop\n      jump\t// out\n        /* \"#utility.yul\":1296:1373   */\n    tag_217:\n        /* \"#utility.yul\":1333:1340   */\n      0x00\n        /* \"#utility.yul\":1362:1367   */\n      dup2\n        /* \"#utility.yul\":1351:1367   */\n      swap1\n      pop\n        /* \"#utility.yul\":1296:1373   */\n      swap2\n      swap1\n      pop\n      jump\t// out\n        /* \"#utility.yul\":1379:1501   */\n    tag_218:\n        /* \"#utility.yul\":1452:1476   */\n      tag_252\n        /* \"#utility.yul\":1470:1475   */\n      dup2\n        /* \"#utility.yul\":1452:1476   */\n      tag_217\n      jump\t// in\n    tag_252:\n        /* \"#utility.yul\":1445:1450   */\n      dup2\n        /* \"#utility.yul\":1442:1477   */\n      eq\n        /* \"#utility.yul\":1432:1495   */\n      tag_253\n      jumpi\n        /* \"#utility.yul\":1491:1492   */\n      0x00\n        /* \"#utility.yul\":1488:1489   */\n      dup1\n        /* \"#utility.yul\":1481:1493   */\n      revert\n        /* \"#utility.yul\":1432:1495   */\n    tag_253:\n        /* \"#utility.yul\":1379:1501   */\n      pop\n      jump\t// out\n        /* \"#utility.yul\":1507:1646   */\n    tag_219:\n        /* \"#utility.yul\":1553:1558   */\n      0x00\n        /* \"#utility.yul\":1591:1597   */\n      dup2\n        /* \"#utility.yul\":1578:1598   */\n      calldataload\n        /* \"#utility.yul\":1569:1598   */\n      swap1\n      pop\n        /* \"#utility.yul\":1607:1640   */\n      tag_255\n        /* \"#utility.yul\":1634:1639   */\n      dup2\n        /* \"#utility.yul\":1607:1640   */\n      tag_218\n      jump\t// in\n    tag_255:\n        /* \"#utility.yul\":1507:1646   */\n      swap3\n      swap2\n      pop\n      pop\n      jump\t// out\n        /* \"#utility.yul\":1682:2248   */\n    tag_220:\n        /* \"#utility.yul\":1754:1759   */\n      0x00\n        /* \"#utility.yul\":1798:1802   */\n      0x40\n        /* \"#utility.yul\":1786:1795   */\n      dup3\n        /* \"#utility.yul\":1781:1784   */\n      dup5\n        /* \"#utility.yul\":1777:1796   */\n      sub\n        /* \"#utility.yul\":1773:1803   */\n      slt\n        /* \"#utility.yul\":1770:1887   */\n      iszero\n      tag_257\n      jumpi\n        /* \"#utility.yul\":1806:1885   */\n      tag_258\n      tag_212\n      jump\t// in\n    tag_258:\n        /* \"#utility.yul\":1770:1887   */\n    tag_257:\n        /* \"#utility.yul\":1905:1926   */\n      tag_259\n        /* \"#utility.yul\":1921:1925   */\n      0x40\n        /* \"#utility.yul\":1905:1926   */\n      tag_215\n      jump\t// in\n    tag_259:\n        /* \"#utility.yul\":1896:1926   */\n      swap1\n      pop\n        /* \"#utility.yul\":1982:1983   */\n      0x00\n        /* \"#utility.yul\":2022:2071   */\n      tag_260\n        /* \"#utility.yul\":2067:2070   */\n      dup5\n        /* \"#utility.yul\":2058:2064   */\n      dup3\n        /* \"#utility.yul\":2047:2056   */\n      dup6\n        /* \"#utility.yul\":2043:2065   */\n      add\n        /* \"#utility.yul\":2022:2071   */\n      tag_219\n      jump\t// in\n    tag_260:\n        /* \"#utility.yul\":2015:2019   */\n      0x00\n        /* \"#utility.yul\":2008:2013   */\n      dup4\n        /* \"#utility.yul\":2004:2020   */\n      add\n        /* \"#utility.yul\":1997:2072   */\n      mstore\n        /* \"#utility.yul\":1936:2083   */\n      pop\n        /* \"#utility.yul\":2139:2141   */\n      0x20\n        /* \"#utility.yul\":2180:2229   */\n      tag_261\n        /* \"#utility.yul\":2225:2228   */\n      dup5\n        /* \"#utility.yul\":2216:2222   */\n      dup3\n        /* \"#utility.yul\":2205:2214   */\n      dup6\n        /* \"#utility.yul\":2201:2223   */\n      add\n        /* \"#utility.yul\":2180:2229   */\n      tag_219\n      jump\t// in\n    tag_261:\n        /* \"#utility.yul\":2173:2177   */\n      0x20\n        /* \"#utility.yul\":2166:2171   */\n      dup4\n        /* \"#utility.yul\":2162:2178   */\n      add\n        /* \"#utility.yul\":2155:2230   */\n      mstore\n        /* \"#utility.yul\":2093:2241   */\n      pop\n        /* \"#utility.yul\":1682:2248   */\n      swap3\n      swap2\n      pop\n      pop\n      jump\t// out\n        /* \"#utility.yul\":2254:2371   */\n    tag_221:\n        /* \"#utility.yul\":2363:2364   */\n      0x00\n        /* \"#utility.yul\":2360:2361   */\n      dup1\n        /* \"#utility.yul\":2353:2365   */\n      revert\n        /* \"#utility.yul\":2377:2626   */\n    tag_222:\n        /* \"#utility.yul\":2452:2456   */\n      0x00\n        /* \"#utility.yul\":2542:2560   */\n      0xffffffffffffffff\n        /* \"#utility.yul\":2534:2540   */\n      dup3\n        /* \"#utility.yul\":2531:2561   */\n      gt\n        /* \"#utility.yul\":2528:2584   */\n      iszero\n      tag_264\n      jumpi\n        /* \"#utility.yul\":2564:2582   */\n      tag_265\n      tag_13\n      jump\t// in\n    tag_265:\n        /* \"#utility.yul\":2528:2584   */\n    tag_264:\n        /* \"#utility.yul\":2614:2618   */\n      0x20\n        /* \"#utility.yul\":2606:2612   */\n      dup3\n        /* \"#utility.yul\":2602:2619   */\n      mul\n        /* \"#utility.yul\":2594:2619   */\n      swap1\n      pop\n        /* \"#utility.yul\":2377:2626   */\n      swap2\n      swap1\n      pop\n      jump\t// out\n        /* \"#utility.yul\":2632:2749   */\n    tag_223:\n        /* \"#utility.yul\":2741:2742   */\n      0x00\n        /* \"#utility.yul\":2738:2739   */\n      dup1\n        /* \"#utility.yul\":2731:2743   */\n      revert\n        /* \"#utility.yul\":2773:3416   */\n    tag_224:\n        /* \"#utility.yul\":2867:2872   */\n      0x00\n        /* \"#utility.yul\":2892:2971   */\n      tag_268\n        /* \"#utility.yul\":2908:2970   */\n      tag_269\n        /* \"#utility.yul\":2963:2969   */\n      dup5\n        /* \"#utility.yul\":2908:2970   */\n      tag_222\n      jump\t// in\n    tag_269:\n        /* \"#utility.yul\":2892:2971   */\n      tag_215\n      jump\t// in\n    tag_268:\n        /* \"#utility.yul\":2883:2971   */\n      swap1\n      pop\n        /* \"#utility.yul\":2991:2996   */\n      dup1\n        /* \"#utility.yul\":3044:3048   */\n      0x20\n        /* \"#utility.yul\":3036:3042   */\n      dup5\n        /* \"#utility.yul\":3032:3049   */\n      mul\n        /* \"#utility.yul\":3024:3030   */\n      dup4\n        /* \"#utility.yul\":3020:3050   */\n      add\n        /* \"#utility.yul\":3073:3076   */\n      dup6\n        /* \"#utility.yul\":3065:3071   */\n      dup2\n        /* \"#utility.yul\":3062:3077   */\n      gt\n        /* \"#utility.yul\":3059:3181   */\n      iszero\n      tag_270\n      jumpi\n        /* \"#utility.yul\":3092:3171   */\n      tag_271\n      tag_223\n      jump\t// in\n    tag_271:\n        /* \"#utility.yul\":3059:3181   */\n    tag_270:\n        /* \"#utility.yul\":3207:3213   */\n      dup4\n        /* \"#utility.yul\":3190:3410   */\n    tag_272:\n        /* \"#utility.yul\":3224:3230   */\n      dup2\n        /* \"#utility.yul\":3219:3222   */\n      dup2\n        /* \"#utility.yul\":3216:3231   */\n      lt\n        /* \"#utility.yul\":3190:3410   */\n      iszero\n      tag_274\n      jumpi\n        /* \"#utility.yul\":3299:3302   */\n      dup1\n        /* \"#utility.yul\":3328:3365   */\n      tag_275\n        /* \"#utility.yul\":3361:3364   */\n      dup9\n        /* \"#utility.yul\":3349:3359   */\n      dup3\n        /* \"#utility.yul\":3328:3365   */\n      tag_219\n      jump\t// in\n    tag_275:\n        /* \"#utility.yul\":3323:3326   */\n      dup5\n        /* \"#utility.yul\":3316:3366   */\n      mstore\n        /* \"#utility.yul\":3395:3399   */\n      0x20\n        /* \"#utility.yul\":3390:3393   */\n      dup5\n        /* \"#utility.yul\":3386:3400   */\n      add\n        /* \"#utility.yul\":3379:3400   */\n      swap4\n      pop\n        /* \"#utility.yul\":3266:3410   */\n      pop\n        /* \"#utility.yul\":3250:3254   */\n      0x20\n        /* \"#utility.yul\":3245:3248   */\n      dup2\n        /* \"#utility.yul\":3241:3255   */\n      add\n        /* \"#utility.yul\":3234:3255   */\n      swap1\n      pop\n        /* \"#utility.yul\":3190:3410   */\n      jump(tag_272)\n    tag_274:\n        /* \"#utility.yul\":3194:3215   */\n      pop\n        /* \"#utility.yul\":2873:3416   */\n      pop\n      pop\n        /* \"#utility.yul\":2773:3416   */\n      swap4\n      swap3\n      pop\n      pop\n      pop\n      jump\t// out\n        /* \"#utility.yul\":3440:3779   */\n    tag_225:\n        /* \"#utility.yul\":3509:3514   */\n      0x00\n        /* \"#utility.yul\":3558:3561   */\n      dup3\n        /* \"#utility.yul\":3551:3555   */\n      0x1f\n        /* \"#utility.yul\":3543:3549   */\n      dup4\n        /* \"#utility.yul\":3539:3556   */\n      add\n        /* \"#utility.yul\":3535:3562   */\n      slt\n        /* \"#utility.yul\":3525:3647   */\n      tag_277\n      jumpi\n        /* \"#utility.yul\":3566:3645   */\n      tag_278\n      tag_221\n      jump\t// in\n    tag_278:\n        /* \"#utility.yul\":3525:3647   */\n    tag_277:\n        /* \"#utility.yul\":3670:3674   */\n      0x02\n        /* \"#utility.yul\":3692:3773   */\n      tag_279\n        /* \"#utility.yul\":3769:3772   */\n      dup5\n        /* \"#utility.yul\":3761:3767   */\n      dup3\n        /* \"#utility.yul\":3753:3759   */\n      dup6\n        /* \"#utility.yul\":3692:3773   */\n      tag_224\n      jump\t// in\n    tag_279:\n        /* \"#utility.yul\":3683:3773   */\n      swap2\n      pop\n        /* \"#utility.yul\":3515:3779   */\n      pop\n        /* \"#utility.yul\":3440:3779   */\n      swap3\n      swap2\n      pop\n      pop\n      jump\t// out\n        /* \"#utility.yul\":3815:4427   */\n    tag_226:\n        /* \"#utility.yul\":3887:3892   */\n      0x00\n        /* \"#utility.yul\":3931:3935   */\n      0x80\n        /* \"#utility.yul\":3919:3928   */\n      dup3\n        /* \"#utility.yul\":3914:3917   */\n      dup5\n        /* \"#utility.yul\":3910:3929   */\n      sub\n        /* \"#utility.yul\":3906:3936   */\n      slt\n        /* \"#utility.yul\":3903:4020   */\n      iszero\n      tag_281\n      jumpi\n        /* \"#utility.yul\":3939:4018   */\n      tag_282\n      tag_212\n      jump\t// in\n    tag_282:\n        /* \"#utility.yul\":3903:4020   */\n    tag_281:\n        /* \"#utility.yul\":4038:4059   */\n      tag_283\n        /* \"#utility.yul\":4054:4058   */\n      0x40\n        /* \"#utility.yul\":4038:4059   */\n      tag_215\n      jump\t// in\n    tag_283:\n        /* \"#utility.yul\":4029:4059   */\n      swap1\n      pop\n        /* \"#utility.yul\":4115:4116   */\n      0x00\n        /* \"#utility.yul\":4155:4227   */\n      tag_284\n        /* \"#utility.yul\":4223:4226   */\n      dup5\n        /* \"#utility.yul\":4214:4220   */\n      dup3\n        /* \"#utility.yul\":4203:4212   */\n      dup6\n        /* \"#utility.yul\":4199:4221   */\n      add\n        /* \"#utility.yul\":4155:4227   */\n      tag_225\n      jump\t// in\n    tag_284:\n        /* \"#utility.yul\":4148:4152   */\n      0x00\n        /* \"#utility.yul\":4141:4146   */\n      dup4\n        /* \"#utility.yul\":4137:4153   */\n      add\n        /* \"#utility.yul\":4130:4228   */\n      mstore\n        /* \"#utility.yul\":4069:4239   */\n      pop\n        /* \"#utility.yul\":4295:4297   */\n      0x40\n        /* \"#utility.yul\":4336:4408   */\n      tag_285\n        /* \"#utility.yul\":4404:4407   */\n      dup5\n        /* \"#utility.yul\":4395:4401   */\n      dup3\n        /* \"#utility.yul\":4384:4393   */\n      dup6\n        /* \"#utility.yul\":4380:4402   */\n      add\n        /* \"#utility.yul\":4336:4408   */\n      tag_225\n      jump\t// in\n    tag_285:\n        /* \"#utility.yul\":4329:4333   */\n      0x20\n        /* \"#utility.yul\":4322:4327   */\n      dup4\n        /* \"#utility.yul\":4318:4334   */\n      add\n        /* \"#utility.yul\":4311:4409   */\n      mstore\n        /* \"#utility.yul\":4249:4420   */\n      pop\n        /* \"#utility.yul\":3815:4427   */\n      swap3\n      swap2\n      pop\n      pop\n      jump\t// out\n        /* \"#utility.yul\":4462:5257   */\n    tag_227:\n        /* \"#utility.yul\":4533:4538   */\n      0x00\n        /* \"#utility.yul\":4577:4583   */\n      0x0100\n        /* \"#utility.yul\":4565:4574   */\n      dup3\n        /* \"#utility.yul\":4560:4563   */\n      dup5\n        /* \"#utility.yul\":4556:4575   */\n      sub\n        /* \"#utility.yul\":4552:4584   */\n      slt\n        /* \"#utility.yul\":4549:4668   */\n      iszero\n      tag_287\n      jumpi\n        /* \"#utility.yul\":4587:4666   */\n      tag_288\n      tag_212\n      jump\t// in\n    tag_288:\n        /* \"#utility.yul\":4549:4668   */\n    tag_287:\n        /* \"#utility.yul\":4686:4707   */\n      tag_289\n        /* \"#utility.yul\":4702:4706   */\n      0x60\n        /* \"#utility.yul\":4686:4707   */\n      tag_215\n      jump\t// in\n    tag_289:\n        /* \"#utility.yul\":4677:4707   */\n      swap1\n      pop\n        /* \"#utility.yul\":4763:4764   */\n      0x00\n        /* \"#utility.yul\":4803:4875   */\n      tag_290\n        /* \"#utility.yul\":4871:4874   */\n      dup5\n        /* \"#utility.yul\":4862:4868   */\n      dup3\n        /* \"#utility.yul\":4851:4860   */\n      dup6\n        /* \"#utility.yul\":4847:4869   */\n      add\n        /* \"#utility.yul\":4803:4875   */\n      tag_220\n      jump\t// in\n    tag_290:\n        /* \"#utility.yul\":4796:4800   */\n      0x00\n        /* \"#utility.yul\":4789:4794   */\n      dup4\n        /* \"#utility.yul\":4785:4801   */\n      add\n        /* \"#utility.yul\":4778:4876   */\n      mstore\n        /* \"#utility.yul\":4717:4887   */\n      pop\n        /* \"#utility.yul\":4943:4945   */\n      0x40\n        /* \"#utility.yul\":4984:5056   */\n      tag_291\n        /* \"#utility.yul\":5052:5055   */\n      dup5\n        /* \"#utility.yul\":5043:5049   */\n      dup3\n        /* \"#utility.yul\":5032:5041   */\n      dup6\n        /* \"#utility.yul\":5028:5050   */\n      add\n        /* \"#utility.yul\":4984:5056   */\n      tag_226\n      jump\t// in\n    tag_291:\n        /* \"#utility.yul\":4977:4981   */\n      0x20\n        /* \"#utility.yul\":4970:4975   */\n      dup4\n        /* \"#utility.yul\":4966:4982   */\n      add\n        /* \"#utility.yul\":4959:5057   */\n      mstore\n        /* \"#utility.yul\":4897:5068   */\n      pop\n        /* \"#utility.yul\":5124:5127   */\n      0xc0\n        /* \"#utility.yul\":5166:5238   */\n      tag_292\n        /* \"#utility.yul\":5234:5237   */\n      dup5\n        /* \"#utility.yul\":5225:5231   */\n      dup3\n        /* \"#utility.yul\":5214:5223   */\n      dup6\n        /* \"#utility.yul\":5210:5232   */\n      add\n        /* \"#utility.yul\":5166:5238   */\n      tag_220\n      jump\t// in\n    tag_292:\n        /* \"#utility.yul\":5159:5163   */\n      0x40\n        /* \"#utility.yul\":5152:5157   */\n      dup4\n        /* \"#utility.yul\":5148:5164   */\n      add\n        /* \"#utility.yul\":5141:5239   */\n      mstore\n        /* \"#utility.yul\":5078:5250   */\n      pop\n        /* \"#utility.yul\":4462:5257   */\n      swap3\n      swap2\n      pop\n      pop\n      jump\t// out\n        /* \"#utility.yul\":5263:5512   */\n    tag_228:\n        /* \"#utility.yul\":5338:5342   */\n      0x00\n        /* \"#utility.yul\":5428:5446   */\n      0xffffffffffffffff\n        /* \"#utility.yul\":5420:5426   */\n      dup3\n        /* \"#utility.yul\":5417:5447   */\n      gt\n        /* \"#utility.yul\":5414:5470   */\n      iszero\n      tag_294\n      jumpi\n        /* \"#utility.yul\":5450:5468   */\n      tag_295\n      tag_13\n      jump\t// in\n    tag_295:\n        /* \"#utility.yul\":5414:5470   */\n    tag_294:\n        /* \"#utility.yul\":5500:5504   */\n      0x20\n        /* \"#utility.yul\":5492:5498   */\n      dup3\n        /* \"#utility.yul\":5488:5505   */\n      mul\n        /* \"#utility.yul\":5480:5505   */\n      swap1\n      pop\n        /* \"#utility.yul\":5263:5512   */\n      swap2\n      swap1\n      pop\n      jump\t// out\n        /* \"#utility.yul\":5536:6179   */\n    tag_229:\n        /* \"#utility.yul\":5630:5635   */\n      0x00\n        /* \"#utility.yul\":5655:5734   */\n      tag_297\n        /* \"#utility.yul\":5671:5733   */\n      tag_298\n        /* \"#utility.yul\":5726:5732   */\n      dup5\n        /* \"#utility.yul\":5671:5733   */\n      tag_228\n      jump\t// in\n    tag_298:\n        /* \"#utility.yul\":5655:5734   */\n      tag_215\n      jump\t// in\n    tag_297:\n        /* \"#utility.yul\":5646:5734   */\n      swap1\n      pop\n        /* \"#utility.yul\":5754:5759   */\n      dup1\n        /* \"#utility.yul\":5807:5811   */\n      0x20\n        /* \"#utility.yul\":5799:5805   */\n      dup5\n        /* \"#utility.yul\":5795:5812   */\n      mul\n        /* \"#utility.yul\":5787:5793   */\n      dup4\n        /* \"#utility.yul\":5783:5813   */\n      add\n        /* \"#utility.yul\":5836:5839   */\n      dup6\n        /* \"#utility.yul\":5828:5834   */\n      dup2\n        /* \"#utility.yul\":5825:5840   */\n      gt\n        /* \"#utility.yul\":5822:5944   */\n      iszero\n      tag_299\n      jumpi\n        /* \"#utility.yul\":5855:5934   */\n      tag_300\n      tag_223\n      jump\t// in\n    tag_300:\n        /* \"#utility.yul\":5822:5944   */\n    tag_299:\n        /* \"#utility.yul\":5970:5976   */\n      dup4\n        /* \"#utility.yul\":5953:6173   */\n    tag_301:\n        /* \"#utility.yul\":5987:5993   */\n      dup2\n        /* \"#utility.yul\":5982:5985   */\n      dup2\n        /* \"#utility.yul\":5979:5994   */\n      lt\n        /* \"#utility.yul\":5953:6173   */\n      iszero\n      tag_303\n      jumpi\n        /* \"#utility.yul\":6062:6065   */\n      dup1\n        /* \"#utility.yul\":6091:6128   */\n      tag_304\n        /* \"#utility.yul\":6124:6127   */\n      dup9\n        /* \"#utility.yul\":6112:6122   */\n      dup3\n        /* \"#utility.yul\":6091:6128   */\n      tag_219\n      jump\t// in\n    tag_304:\n        /* \"#utility.yul\":6086:6089   */\n      dup5\n        /* \"#utility.yul\":6079:6129   */\n      mstore\n        /* \"#utility.yul\":6158:6162   */\n      0x20\n        /* \"#utility.yul\":6153:6156   */\n      dup5\n        /* \"#utility.yul\":6149:6163   */\n      add\n        /* \"#utility.yul\":6142:6163   */\n      swap4\n      pop\n        /* \"#utility.yul\":6029:6173   */\n      pop\n        /* \"#utility.yul\":6013:6017   */\n      0x20\n        /* \"#utility.yul\":6008:6011   */\n      dup2\n        /* \"#utility.yul\":6004:6018   */\n      add\n        /* \"#utility.yul\":5997:6018   */\n      swap1\n      pop\n        /* \"#utility.yul\":5953:6173   */\n      jump(tag_301)\n    tag_303:\n        /* \"#utility.yul\":5957:5978   */\n      pop\n        /* \"#utility.yul\":5636:6179   */\n      pop\n      pop\n        /* \"#utility.yul\":5536:6179   */\n      swap4\n      swap3\n      pop\n      pop\n      pop\n      jump\t// out\n        /* \"#utility.yul\":6203:6542   */\n    tag_230:\n        /* \"#utility.yul\":6272:6277   */\n      0x00\n        /* \"#utility.yul\":6321:6324   */\n      dup3\n        /* \"#utility.yul\":6314:6318   */\n      0x1f\n        /* \"#utility.yul\":6306:6312   */\n      dup4\n        /* \"#utility.yul\":6302:6319   */\n      add\n        /* \"#utility.yul\":6298:6325   */\n      slt\n        /* \"#utility.yul\":6288:6410   */\n      tag_306\n      jumpi\n        /* \"#utility.yul\":6329:6408   */\n      tag_307\n      tag_221\n      jump\t// in\n    tag_307:\n        /* \"#utility.yul\":6288:6410   */\n    tag_306:\n        /* \"#utility.yul\":6433:6437   */\n      0x01\n        /* \"#utility.yul\":6455:6536   */\n      tag_308\n        /* \"#utility.yul\":6532:6535   */\n      dup5\n        /* \"#utility.yul\":6524:6530   */\n      dup3\n        /* \"#utility.yul\":6516:6522   */\n      dup6\n        /* \"#utility.yul\":6455:6536   */\n      tag_229\n      jump\t// in\n    tag_308:\n        /* \"#utility.yul\":6446:6536   */\n      swap2\n      pop\n        /* \"#utility.yul\":6278:6542   */\n      pop\n        /* \"#utility.yul\":6203:6542   */\n      swap3\n      swap2\n      pop\n      pop\n      jump\t// out\n        /* \"#utility.yul\":6548:7114   */\n    tag_6:\n        /* \"#utility.yul\":6661:6667   */\n      0x00\n        /* \"#utility.yul\":6669:6675   */\n      dup1\n        /* \"#utility.yul\":6718:6721   */\n      0x0120\n        /* \"#utility.yul\":6706:6715   */\n      dup4\n        /* \"#utility.yul\":6697:6704   */\n      dup6\n        /* \"#utility.yul\":6693:6716   */\n      sub\n        /* \"#utility.yul\":6689:6722   */\n      slt\n        /* \"#utility.yul\":6686:6806   */\n      iszero\n      tag_310\n      jumpi\n        /* \"#utility.yul\":6725:6804   */\n      tag_311\n      tag_210\n      jump\t// in\n    tag_311:\n        /* \"#utility.yul\":6686:6806   */\n    tag_310:\n        /* \"#utility.yul\":6845:6846   */\n      0x00\n        /* \"#utility.yul\":6870:6945   */\n      tag_312\n        /* \"#utility.yul\":6937:6944   */\n      dup6\n        /* \"#utility.yul\":6928:6934   */\n      dup3\n        /* \"#utility.yul\":6917:6926   */\n      dup7\n        /* \"#utility.yul\":6913:6935   */\n      add\n        /* \"#utility.yul\":6870:6945   */\n      tag_227\n      jump\t// in\n    tag_312:\n        /* \"#utility.yul\":6860:6945   */\n      swap3\n      pop\n        /* \"#utility.yul\":6816:6955   */\n      pop\n        /* \"#utility.yul\":6994:6997   */\n      0x0100\n        /* \"#utility.yul\":7021:7097   */\n      tag_313\n        /* \"#utility.yul\":7089:7096   */\n      dup6\n        /* \"#utility.yul\":7080:7086   */\n      dup3\n        /* \"#utility.yul\":7069:7078   */\n      dup7\n        /* \"#utility.yul\":7065:7087   */\n      add\n        /* \"#utility.yul\":7021:7097   */\n      tag_230\n      jump\t// in\n    tag_313:\n        /* \"#utility.yul\":7011:7097   */\n      swap2\n      pop\n        /* \"#utility.yul\":6965:7107   */\n      pop\n        /* \"#utility.yul\":6548:7114   */\n      swap3\n      pop\n      swap3\n      swap1\n      pop\n      jump\t// out\n        /* \"#utility.yul\":7120:7210   */\n    tag_231:\n        /* \"#utility.yul\":7154:7161   */\n      0x00\n        /* \"#utility.yul\":7197:7202   */\n      dup2\n        /* \"#utility.yul\":7190:7203   */\n      iszero\n        /* \"#utility.yul\":7183:7204   */\n      iszero\n        /* \"#utility.yul\":7172:7204   */\n      swap1\n      pop\n        /* \"#utility.yul\":7120:7210   */\n      swap2\n      swap1\n      pop\n      jump\t// out\n        /* \"#utility.yul\":7216:7325   */\n    tag_232:\n        /* \"#utility.yul\":7297:7318   */\n      tag_316\n        /* \"#utility.yul\":7312:7317   */\n      dup2\n        /* \"#utility.yul\":7297:7318   */\n      tag_231\n      jump\t// in\n    tag_316:\n        /* \"#utility.yul\":7292:7295   */\n      dup3\n        /* \"#utility.yul\":7285:7319   */\n      mstore\n        /* \"#utility.yul\":7216:7325   */\n      pop\n      pop\n      jump\t// out\n        /* \"#utility.yul\":7331:7541   */\n    tag_9:\n        /* \"#utility.yul\":7418:7422   */\n      0x00\n        /* \"#utility.yul\":7456:7458   */\n      0x20\n        /* \"#utility.yul\":7445:7454   */\n      dup3\n        /* \"#utility.yul\":7441:7459   */\n      add\n        /* \"#utility.yul\":7433:7459   */\n      swap1\n      pop\n        /* \"#utility.yul\":7469:7534   */\n      tag_318\n        /* \"#utility.yul\":7531:7532   */\n      0x00\n        /* \"#utility.yul\":7520:7529   */\n      dup4\n        /* \"#utility.yul\":7516:7533   */\n      add\n        /* \"#utility.yul\":7507:7513   */\n      dup5\n        /* \"#utility.yul\":7469:7534   */\n      tag_232\n      jump\t// in\n    tag_318:\n        /* \"#utility.yul\":7331:7541   */\n      swap3\n      swap2\n      pop\n      pop\n      jump\t// out\n        /* \"#utility.yul\":7547:7727   */\n    tag_20:\n        /* \"#utility.yul\":7595:7672   */\n      0x4e487b7100000000000000000000000000000000000000000000000000000000\n        /* \"#utility.yul\":7592:7593   */\n      0x00\n        /* \"#utility.yul\":7585:7673   */\n      mstore\n        /* \"#utility.yul\":7692:7696   */\n      0x32\n        /* \"#utility.yul\":7689:7690   */\n      0x04\n        /* \"#utility.yul\":7682:7697   */\n      mstore\n        /* \"#utility.yul\":7716:7720   */\n      0x24\n        /* \"#utility.yul\":7713:7714   */\n      0x00\n        /* \"#utility.yul\":7706:7721   */\n      revert\n        /* \"#utility.yul\":7733:7913   */\n    tag_233:\n        /* \"#utility.yul\":7781:7858   */\n      0x4e487b7100000000000000000000000000000000000000000000000000000000\n        /* \"#utility.yul\":7778:7779   */\n      0x00\n        /* \"#utility.yul\":7771:7859   */\n      mstore\n        /* \"#utility.yul\":7878:7882   */\n      0x11\n        /* \"#utility.yul\":7875:7876   */\n      0x04\n        /* \"#utility.yul\":7868:7883   */\n      mstore\n        /* \"#utility.yul\":7902:7906   */\n      0x24\n        /* \"#utility.yul\":7899:7900   */\n      0x00\n        /* \"#utility.yul\":7892:7907   */\n      revert\n        /* \"#utility.yul\":7919:8152   */\n    tag_24:\n        /* \"#utility.yul\":7958:7961   */\n      0x00\n        /* \"#utility.yul\":7981:8005   */\n      tag_322\n        /* \"#utility.yul\":7999:8004   */\n      dup3\n        /* \"#utility.yul\":7981:8005   */\n      tag_217\n      jump\t// in\n    tag_322:\n        /* \"#utility.yul\":7972:8005   */\n      swap2\n      pop\n        /* \"#utility.yul\":8027:8093   */\n      0xffffffffffffffffffffffffffffffffffffffffffffffffffffffffffffffff\n        /* \"#utility.yul\":8020:8025   */\n      dup3\n        /* \"#utility.yul\":8017:8094   */\n      sub\n        /* \"#utility.yul\":8014:8117   */\n      tag_323\n      jumpi\n        /* \"#utility.yul\":8097:8115   */\n      tag_324\n      tag_233\n      jump\t// in\n    tag_324:\n        /* \"#utility.yul\":8014:8117   */\n    tag_323:\n        /* \"#utility.yul\":8144:8145   */\n      0x01\n        /* \"#utility.yul\":8137:8142   */\n      dup3\n        /* \"#utility.yul\":8133:8146   */\n      add\n        /* \"#utility.yul\":8126:8146   */\n      swap1\n      pop\n        /* \"#utility.yul\":7919:8152   */\n      swap2\n      swap1\n      pop\n      jump\t// out\n        /* \"#utility.yul\":8158:8349   */\n    tag_33:\n        /* \"#utility.yul\":8198:8201   */\n      0x00\n        /* \"#utility.yul\":8217:8237   */\n      tag_326\n        /* \"#utility.yul\":8235:8236   */\n      dup3\n        /* \"#utility.yul\":8217:8237   */\n      tag_217\n      jump\t// in\n    tag_326:\n        /* \"#utility.yul\":8212:8237   */\n      swap2\n      pop\n        /* \"#utility.yul\":8251:8271   */\n      tag_327\n        /* \"#utility.yul\":8269:8270   */\n      dup4\n        /* \"#utility.yul\":8251:8271   */\n      tag_217\n      jump\t// in\n    tag_327:\n        /* \"#utility.yul\":8246:8271   */\n      swap3\n      pop\n        /* \"#utility.yul\":8294:8295   */\n      dup3\n        /* \"#utility.yul\":8291:8292   */\n      dup3\n        /* \"#utility.yul\":8287:8296   */\n      add\n        /* \"#utility.yul\":8280:8296   */\n      swap1\n      pop\n        /* \"#utility.yul\":8315:8318   */\n      dup1\n        /* \"#utility.yul\":8312:8313   */\n      dup3\n        /* \"#utility.yul\":8309:8319   */\n      gt\n        /* \"#utility.yul\":8306:8342   */\n      iszero\n      tag_328\n      jumpi\n        /* \"#utility.yul\":8322:8340   */\n      tag_329\n      tag_233\n      jump\t// in\n    tag_329:\n        /* \"#utility.yul\":8306:8342   */\n    tag_328:\n        /* \"#utility.yul\":8158:8349   */\n      swap3\n      swap2\n      pop\n      pop\n      jump\t// out\n        /* \"#utility.yul\":8355:8535   */\n    tag_234:\n        /* \"#utility.yul\":8403:8480   */\n      0x4e487b7100000000000000000000000000000000000000000000000000000000\n        /* \"#utility.yul\":8400:8401   */\n      0x00\n        /* \"#utility.yul\":8393:8481   */\n      mstore\n        /* \"#utility.yul\":8500:8504   */\n      0x12\n        /* \"#utility.yul\":8497:8498   */\n      0x04\n        /* \"#utility.yul\":8490:8505   */\n      mstore\n        /* \"#utility.yul\":8524:8528   */\n      0x24\n        /* \"#utility.yul\":8521:8522   */\n      0x00\n        /* \"#utility.yul\":8514:8529   */\n      revert\n        /* \"#utility.yul\":8541:8717   */\n    tag_107:\n        /* \"#utility.yul\":8573:8574   */\n      0x00\n        /* \"#utility.yul\":8590:8610   */\n      tag_332\n        /* \"#utility.yul\":8608:8609   */\n      dup3\n        /* \"#utility.yul\":8590:8610   */\n      tag_217\n      jump\t// in\n    tag_332:\n        /* \"#utility.yul\":8585:8610   */\n      swap2\n      pop\n        /* \"#utility.yul\":8624:8644   */\n      tag_333\n        /* \"#utility.yul\":8642:8643   */\n      dup4\n        /* \"#utility.yul\":8624:8644   */\n      tag_217\n      jump\t// in\n    tag_333:\n        /* \"#utility.yul\":8619:8644   */\n      swap3\n      pop\n        /* \"#utility.yul\":8663:8664   */\n      dup3\n        /* \"#utility.yul\":8653:8688   */\n      tag_334\n      jumpi\n        /* \"#utility.yul\":8668:8686   */\n      tag_335\n      tag_234\n      jump\t// in\n    tag_335:\n        /* \"#utility.yul\":8653:8688   */\n    tag_334:\n        /* \"#utility.yul\":8709:8710   */\n      dup3\n        /* \"#utility.yul\":8706:8707   */\n      dup3\n        /* \"#utility.yul\":8702:8711   */\n      mod\n        /* \"#utility.yul\":8697:8711   */\n      swap1\n      pop\n        /* \"#utility.yul\":8541:8717   */\n      swap3\n      swap2\n      pop\n      pop\n      jump\t// out\n        /* \"#utility.yul\":8723:8917   */\n    tag_109:\n        /* \"#utility.yul\":8763:8767   */\n      0x00\n        /* \"#utility.yul\":8783:8803   */\n      tag_337\n        /* \"#utility.yul\":8801:8802   */\n      dup3\n        /* \"#utility.yul\":8783:8803   */\n      tag_217\n      jump\t// in\n    tag_337:\n        /* \"#utility.yul\":8778:8803   */\n      swap2\n      pop\n        /* \"#utility.yul\":8817:8837   */\n      tag_338\n        /* \"#utility.yul\":8835:8836   */\n      dup4\n        /* \"#utility.yul\":8817:8837   */\n      tag_217\n      jump\t// in\n    tag_338:\n        /* \"#utility.yul\":8812:8837   */\n      swap3\n      pop\n        /* \"#utility.yul\":8861:8862   */\n      dup3\n        /* \"#utility.yul\":8858:8859   */\n      dup3\n        /* \"#utility.yul\":8854:8863   */\n      sub\n        /* \"#utility.yul\":8846:8863   */\n      swap1\n      pop\n        /* \"#utility.yul\":8885:8886   */\n      dup2\n        /* \"#utility.yul\":8879:8883   */\n      dup2\n        /* \"#utility.yul\":8876:8887   */\n      gt\n        /* \"#utility.yul\":8873:8910   */\n      iszero\n      tag_339\n      jumpi\n        /* \"#utility.yul\":8890:8908   */\n      tag_340\n      tag_233\n      jump\t// in\n    tag_340:\n        /* \"#utility.yul\":8873:8910   */\n    tag_339:\n        /* \"#utility.yul\":8723:8917   */\n      swap3\n      swap2\n      pop\n      pop\n      jump\t// out\n        /* \"#utility.yul\":8923:9333   */\n    tag_143:\n        /* \"#utility.yul\":8963:8970   */\n      0x00\n        /* \"#utility.yul\":8986:9006   */\n      tag_342\n        /* \"#utility.yul\":9004:9005   */\n      dup3\n        /* \"#utility.yul\":8986:9006   */\n      tag_217\n      jump\t// in\n    tag_342:\n        /* \"#utility.yul\":8981:9006   */\n      swap2\n      pop\n        /* \"#utility.yul\":9020:9040   */\n      tag_343\n        /* \"#utility.yul\":9038:9039   */\n      dup4\n        /* \"#utility.yul\":9020:9040   */\n      tag_217\n      jump\t// in\n    tag_343:\n        /* \"#utility.yul\":9015:9040   */\n      swap3\n      pop\n        /* \"#utility.yul\":9075:9076   */\n      dup3\n        /* \"#utility.yul\":9072:9073   */\n      dup3\n        /* \"#utility.yul\":9068:9077   */\n      mul\n        /* \"#utility.yul\":9097:9127   */\n      tag_344\n        /* \"#utility.yul\":9115:9126   */\n      dup2\n        /* \"#utility.yul\":9097:9127   */\n      tag_217\n      jump\t// in\n    tag_344:\n        /* \"#utility.yul\":9086:9127   */\n      swap2\n      pop\n        /* \"#utility.yul\":9276:9277   */\n      dup3\n        /* \"#utility.yul\":9267:9274   */\n      dup3\n        /* \"#utility.yul\":9263:9278   */\n      div\n        /* \"#utility.yul\":9260:9261   */\n      dup5\n        /* \"#utility.yul\":9257:9279   */\n      eq\n        /* \"#utility.yul\":9237:9238   */\n      dup4\n        /* \"#utility.yul\":9230:9239   */\n      iszero\n        /* \"#utility.yul\":9210:9293   */\n      or\n        /* \"#utility.yul\":9187:9326   */\n      tag_345\n      jumpi\n        /* \"#utility.yul\":9306:9324   */\n      tag_346\n      tag_233\n      jump\t// in\n    tag_346:\n        /* \"#utility.yul\":9187:9326   */\n    tag_345:\n        /* \"#utility.yul\":8971:9333   */\n      pop\n        /* \"#utility.yul\":8923:9333   */\n      swap3\n      swap2\n      pop\n      pop\n      jump\t// out\n\n    auxdata: 0xa2646970667358221220d482190eb7119260e2d38a1721cfff3046cde5f642732c0ee91ad778bfbf59d064736f6c63430008120033\n}\n",
				"bytecode": {
					"linkReferences": {},
					"object": "608060405234801561001057600080fd5b506114ae806100206000396000f3fe608060405234801561001057600080fd5b506004361061002b5760003560e01c8063f48d772914610030575b600080fd5b61004a60048036038101906100459190611250565b610060565b60405161005791906112ad565b60405180910390f35b600080600167ffffffffffffffff81111561007e5761007d610f2e565b5b6040519080825280602002602001820160405280156100ac5781602001602082028036833780820191505090505b50905060005b6001811015610105578381600181106100ce576100cd6112c8565b5b60200201518282815181106100e6576100e56112c8565b5b60200260200101818152505080806100fd90611326565b9150506100b2565b506000610112828661012d565b03610121576001915050610127565b60009150505b92915050565b6000807f30644e72e131a029b85045b68181585d2833e84879b9709143e1f593f00000019050600061015d6102c4565b905080608001515160018651610173919061136e565b1461017d57600080fd5b60006040518060400160405280600081526020016000815250905060005b865181101561023657838782815181106101b8576101b76112c8565b5b6020026020010151106101ca57600080fd5b6102218261021c85608001516001856101e3919061136e565b815181106101f4576101f36112c8565b5b60200260200101518a858151811061020f5761020e6112c8565b5b60200260200101516106c8565b61076a565b9150808061022e90611326565b91505061019b565b50610260818360800151600081518110610253576102526112c8565b5b602002602001015161076a565b90506102a68560000151866020015161027884610832565b856040015161028a8a60400151610832565b876060015161029c8960000151610832565b89602001516108d7565b6102b657600193505050506102be565b600093505050505b92915050565b6102cc610dfa565b60405180604001604052807f2b57d86fbee204a508d151696f54dffdbe2cfbbf12f5666fa519a3f4ae46bba281526020017f1599a844a6d43feee3c4e4c23a7a655546f051257b598d54e003c8e2c078f6c38152508160000181905250604051806040016040528060405180604001604052807f29230605a78e74382750102eff3f07906f40e69bcd8a952d0fdee833a55fa99281526020017f24e163644046e056eebf85f484eec92efbb6898c619c8233059dd177637bcc5e815250815260200160405180604001604052807f24130e967dcaac9b270979d2a15ae45c9d189ebe74044e6b49a68208222da26681526020017f071722e60d10a35f522d4cd8ac14bb8d8c35977f3ca0cdad2a6eaaa015cb35e28152508152508160200181905250604051806040016040528060405180604001604052807f1b1930db3fa748039efd007245830609cc120a80b383cae28061cbcafa7fb6c281526020017f2bea5128998e51ced0d5efd5e63e86c102cc3b45f768a3da7db6a360e5de5dd0815250815260200160405180604001604052807f2984242441b994dc1c70f3d9a2252b10138c3caab073cdbcb452f63f28840fc481526020017f1b0f3366453eb215c1688155e3b86ac880ab9149686d2089cbe28cad0caafe218152508152508160400181905250604051806040016040528060405180604001604052807f23ee6cb0aae97d872c272ad7d7358b535ff6205a6850bf98bad43ddb1503a5c881526020017f2929a2bd51132c6e49d5aaeb03ad65c21432aa39641895ea2a0cca2be2cbc796815250815260200160405180604001604052807f11b40067486ca8be694c8903c86e4ffff778e69f7f8a6395618ae8eec404ae8d81526020017f1421055c7f11bb433f26a76f49ffbe37709ac1fbd35fd2206138a6a01c071b158152508152508160600181905250600267ffffffffffffffff81111561059357610592610f2e565b5b6040519080825280602002602001820160405280156105cc57816020015b6105b9610e41565b8152602001906001900390816105b15790505b50816080018190525060405180604001604052807f1ad41b2f3b3dec33858d39d8a17a9dbb576cd47ca64fce07209783cbd59d9a1281526020017f22c73c904c306caf013cb29c1ce589558f8b59c433ad582239e88ba2a0d615448152508160800151600081518110610642576106416112c8565b5b602002602001018190525060405180604001604052807f27b08f3bcc7992eaad60577e68e249079255086f5bed2c69b9d01f8bea3ff04381526020017f05506163277d78a204f426e7a4b40bddf0973a838e3dffb7614756e665b72a2781525081608001516001815181106106ba576106b96112c8565b5b602002602001018190525090565b6106d0610e41565b6106d8610e5b565b8360000151816000600381106106f1576106f06112c8565b5b602002018181525050836020015181600160038110610713576107126112c8565b5b6020020181815250508281600260038110610731576107306112c8565b5b602002018181525050600060608360808460076107d05a03fa9050806000810361075757fe5b508061076257600080fd5b505092915050565b610772610e41565b61077a610e7d565b836000015181600060048110610793576107926112c8565b5b6020020181815250508360200151816001600481106107b5576107b46112c8565b5b6020020181815250508260000151816002600481106107d7576107d66112c8565b5b6020020181815250508260200151816003600481106107f9576107f86112c8565b5b602002018181525050600060608360c08460066107d05a03fa9050806000810361081f57fe5b508061082a57600080fd5b505092915050565b61083a610e41565b60007f30644e72e131a029b85045b68181585d97816a916871ca8d3c208c16d87cfd47905060008360000151148015610877575060008360200151145b1561089b5760405180604001604052806000815260200160008152509150506108d2565b6040518060400160405280846000015181526020018285602001516108c091906113d1565b836108cb9190611402565b8152509150505b919050565b600080600467ffffffffffffffff8111156108f5576108f4610f2e565b5b60405190808252806020026020018201604052801561092e57816020015b61091b610e41565b8152602001906001900390816109135790505b5090506000600467ffffffffffffffff81111561094e5761094d610f2e565b5b60405190808252806020026020018201604052801561098757816020015b610974610e9f565b81526020019060019003908161096c5790505b5090508a8260008151811061099f5761099e6112c8565b5b602002602001018190525088826001815181106109bf576109be6112c8565b5b602002602001018190525086826002815181106109df576109de6112c8565b5b602002602001018190525084826003815181106109ff576109fe6112c8565b5b60200260200101819052508981600081518110610a1f57610a1e6112c8565b5b60200260200101819052508781600181518110610a3f57610a3e6112c8565b5b60200260200101819052508581600281518110610a5f57610a5e6112c8565b5b60200260200101819052508381600381518110610a7f57610a7e6112c8565b5b6020026020010181905250610a948282610aa4565b9250505098975050505050505050565b60008151835114610ab457600080fd5b6000835190506000600682610ac99190611436565b905060008167ffffffffffffffff811115610ae757610ae6610f2e565b5b604051908082528060200260200182016040528015610b155781602001602082028036833780820191505090505b50905060005b83811015610d9a57868181518110610b3657610b356112c8565b5b602002602001015160000151826000600684610b529190611436565b610b5c919061136e565b81518110610b6d57610b6c6112c8565b5b602002602001018181525050868181518110610b8c57610b8b6112c8565b5b602002602001015160200151826001600684610ba89190611436565b610bb2919061136e565b81518110610bc357610bc26112c8565b5b602002602001018181525050858181518110610be257610be16112c8565b5b602002602001015160000151600160028110610c0157610c006112c8565b5b6020020151826002600684610c169190611436565b610c20919061136e565b81518110610c3157610c306112c8565b5b602002602001018181525050858181518110610c5057610c4f6112c8565b5b602002602001015160000151600060028110610c6f57610c6e6112c8565b5b6020020151826003600684610c849190611436565b610c8e919061136e565b81518110610c9f57610c9e6112c8565b5b602002602001018181525050858181518110610cbe57610cbd6112c8565b5b602002602001015160200151600160028110610cdd57610cdc6112c8565b5b6020020151826004600684610cf29190611436565b610cfc919061136e565b81518110610d0d57610d0c6112c8565b5b602002602001018181525050858181518110610d2c57610d2b6112c8565b5b602002602001015160200151600060028110610d4b57610d4a6112c8565b5b6020020151826005600684610d609190611436565b610d6a919061136e565b81518110610d7b57610d7a6112c8565b5b6020026020010181815250508080610d9290611326565b915050610b1b565b50610da3610ec5565b6000602082602086026020860160086107d05a03fa90508060008103610dc557fe5b5080610dd057600080fd5b600082600060018110610de657610de56112c8565b5b602002015114159550505050505092915050565b6040518060a00160405280610e0d610e41565b8152602001610e1a610e9f565b8152602001610e27610e9f565b8152602001610e34610e9f565b8152602001606081525090565b604051806040016040528060008152602001600081525090565b6040518060600160405280600390602082028036833780820191505090505090565b6040518060800160405280600490602082028036833780820191505090505090565b6040518060400160405280610eb2610ee7565b8152602001610ebf610ee7565b81525090565b6040518060200160405280600190602082028036833780820191505090505090565b6040518060400160405280600290602082028036833780820191505090505090565b6000604051905090565b600080fd5b600080fd5b6000601f19601f8301169050919050565b7f4e487b7100000000000000000000000000000000000000000000000000000000600052604160045260246000fd5b610f6682610f1d565b810181811067ffffffffffffffff82111715610f8557610f84610f2e565b5b80604052505050565b6000610f98610f09565b9050610fa48282610f5d565b919050565b6000819050919050565b610fbc81610fa9565b8114610fc757600080fd5b50565b600081359050610fd981610fb3565b92915050565b600060408284031215610ff557610ff4610f18565b5b610fff6040610f8e565b9050600061100f84828501610fca565b600083015250602061102384828501610fca565b60208301525092915050565b600080fd5b600067ffffffffffffffff82111561104f5761104e610f2e565b5b602082029050919050565b600080fd5b600061107261106d84611034565b610f8e565b9050806020840283018581111561108c5761108b61105a565b5b835b818110156110b557806110a18882610fca565b84526020840193505060208101905061108e565b5050509392505050565b600082601f8301126110d4576110d361102f565b5b60026110e184828561105f565b91505092915050565b600060808284031215611100576110ff610f18565b5b61110a6040610f8e565b9050600061111a848285016110bf565b600083015250604061112e848285016110bf565b60208301525092915050565b6000610100828403121561115157611150610f18565b5b61115b6060610f8e565b9050600061116b84828501610fdf565b600083015250604061117f848285016110ea565b60208301525060c061119384828501610fdf565b60408301525092915050565b600067ffffffffffffffff8211156111ba576111b9610f2e565b5b602082029050919050565b60006111d86111d38461119f565b610f8e565b905080602084028301858111156111f2576111f161105a565b5b835b8181101561121b57806112078882610fca565b8452602084019350506020810190506111f4565b5050509392505050565b600082601f83011261123a5761123961102f565b5b60016112478482856111c5565b91505092915050565b600080610120838503121561126857611267610f13565b5b60006112768582860161113a565b92505061010061128885828601611225565b9150509250929050565b60008115159050919050565b6112a781611292565b82525050565b60006020820190506112c2600083018461129e565b92915050565b7f4e487b7100000000000000000000000000000000000000000000000000000000600052603260045260246000fd5b7f4e487b7100000000000000000000000000000000000000000000000000000000600052601160045260246000fd5b600061133182610fa9565b91507fffffffffffffffffffffffffffffffffffffffffffffffffffffffffffffffff8203611363576113626112f7565b5b600182019050919050565b600061137982610fa9565b915061138483610fa9565b925082820190508082111561139c5761139b6112f7565b5b92915050565b7f4e487b7100000000000000000000000000000000000000000000000000000000600052601260045260246000fd5b60006113dc82610fa9565b91506113e783610fa9565b9250826113f7576113f66113a2565b5b828206905092915050565b600061140d82610fa9565b915061141883610fa9565b92508282039050818111156114305761142f6112f7565b5b92915050565b600061144182610fa9565b915061144c83610fa9565b925082820261145a81610fa9565b91508282048414831517611471576114706112f7565b5b509291505056fea2646970667358221220d482190eb7119260e2d38a1721cfff3046cde5f642732c0ee91ad778bfbf59d064736f6c63430008120033",
					"opcodes": "PUSH1 0x80 PUSH1 0x40 MSTORE CALLVALUE DUP1 ISZERO PUSH2 0x10 JUMPI PUSH1 0x0 DUP1 REVERT JUMPDEST POP PUSH2 0x14AE DUP1 PUSH2 0x20 PUSH1 0x0 CODECOPY PUSH1 0x0 RETURN INVALID PUSH1 0x80 PUSH1 0x40 MSTORE CALLVALUE DUP1 ISZERO PUSH2 0x10 JUMPI PUSH1 0x0 DUP1 REVERT JUMPDEST POP PUSH1 0x4 CALLDATASIZE LT PUSH2 0x2B JUMPI PUSH1 0x0 CALLDATALOAD PUSH1 0xE0 SHR DUP1 PUSH4 0xF48D7729 EQ PUSH2 0x30 JUMPI JUMPDEST PUSH1 0x0 DUP1 REVERT JUMPDEST PUSH2 0x4A PUSH1 0x4 DUP1 CALLDATASIZE SUB DUP2 ADD SWAP1 PUSH2 0x45 SWAP2 SWAP1 PUSH2 0x1250 JUMP JUMPDEST PUSH2 0x60 JUMP JUMPDEST PUSH1 0x40 MLOAD PUSH2 0x57 SWAP2 SWAP1 PUSH2 0x12AD JUMP JUMPDEST PUSH1 0x40 MLOAD DUP1 SWAP2 SUB SWAP1 RETURN JUMPDEST PUSH1 0x0 DUP1 PUSH1 0x1 PUSH8 0xFFFFFFFFFFFFFFFF DUP2 GT ISZERO PUSH2 0x7E JUMPI PUSH2 0x7D PUSH2 0xF2E JUMP JUMPDEST JUMPDEST PUSH1 0x40 MLOAD SWAP1 DUP1 DUP3 MSTORE DUP1 PUSH1 0x20 MUL PUSH1 0x20 ADD DUP3 ADD PUSH1 0x40 MSTORE DUP1 ISZERO PUSH2 0xAC JUMPI DUP2 PUSH1 0x20 ADD PUSH1 0x20 DUP3 MUL DUP1 CALLDATASIZE DUP4 CALLDATACOPY DUP1 DUP3 ADD SWAP2 POP POP SWAP1 POP JUMPDEST POP SWAP1 POP PUSH1 0x0 JUMPDEST PUSH1 0x1 DUP2 LT ISZERO PUSH2 0x105 JUMPI DUP4 DUP2 PUSH1 0x1 DUP2 LT PUSH2 0xCE JUMPI PUSH2 0xCD PUSH2 0x12C8 JUMP JUMPDEST JUMPDEST PUSH1 0x20 MUL ADD MLOAD DUP3 DUP3 DUP2 MLOAD DUP2 LT PUSH2 0xE6 JUMPI PUSH2 0xE5 PUSH2 0x12C8 JUMP JUMPDEST JUMPDEST PUSH1 0x20 MUL PUSH1 0x20 ADD ADD DUP2 DUP2 MSTORE POP POP DUP1 DUP1 PUSH2 0xFD SWAP1 PUSH2 0x1326 JUMP JUMPDEST SWAP2 POP POP PUSH2 0xB2 JUMP JUMPDEST POP PUSH1 0x0 PUSH2 0x112 DUP3 DUP7 PUSH2 0x12D JUMP JUMPDEST SUB PUSH2 0x121 JUMPI PUSH1 0x1 SWAP2 POP POP PUSH2 0x127 JUMP JUMPDEST PUSH1 0x0 SWAP2 POP POP JUMPDEST SWAP3 SWAP2 POP POP JUMP JUMPDEST PUSH1 0x0 DUP1 PUSH32 0x30644E72E131A029B85045B68181585D2833E84879B9709143E1F593F0000001 SWAP1 POP PUSH1 0x0 PUSH2 0x15D PUSH2 0x2C4 JUMP JUMPDEST SWAP1 POP DUP1 PUSH1 0x80 ADD MLOAD MLOAD PUSH1 0x1 DUP7 MLOAD PUSH2 0x173 SWAP2 SWAP1 PUSH2 0x136E JUMP JUMPDEST EQ PUSH2 0x17D JUMPI PUSH1 0x0 DUP1 REVERT JUMPDEST PUSH1 0x0 PUSH1 0x40 MLOAD DUP1 PUSH1 0x40 ADD PUSH1 0x40 MSTORE DUP1 PUSH1 0x0 DUP2 MSTORE PUSH1 0x20 ADD PUSH1 0x0 DUP2 MSTORE POP SWAP1 POP PUSH1 0x0 JUMPDEST DUP7 MLOAD DUP2 LT ISZERO PUSH2 0x236 JUMPI DUP4 DUP8 DUP3 DUP2 MLOAD DUP2 LT PUSH2 0x1B8 JUMPI PUSH2 0x1B7 PUSH2 0x12C8 JUMP JUMPDEST JUMPDEST PUSH1 0x20 MUL PUSH1 0x20 ADD ADD MLOAD LT PUSH2 0x1CA JUMPI PUSH1 0x0 DUP1 REVERT JUMPDEST PUSH2 0x221 DUP3 PUSH2 0x21C DUP6 PUSH1 0x80 ADD MLOAD PUSH1 0x1 DUP6 PUSH2 0x1E3 SWAP2 SWAP1 PUSH2 0x136E JUMP JUMPDEST DUP2 MLOAD DUP2 LT PUSH2 0x1F4 JUMPI PUSH2 0x1F3 PUSH2 0x12C8 JUMP JUMPDEST JUMPDEST PUSH1 0x20 MUL PUSH1 0x20 ADD ADD MLOAD DUP11 DUP6 DUP2 MLOAD DUP2 LT PUSH2 0x20F JUMPI PUSH2 0x20E PUSH2 0x12C8 JUMP JUMPDEST JUMPDEST PUSH1 0x20 MUL PUSH1 0x20 ADD ADD MLOAD PUSH2 0x6C8 JUMP JUMPDEST PUSH2 0x76A JUMP JUMPDEST SWAP2 POP DUP1 DUP1 PUSH2 0x22E SWAP1 PUSH2 0x1326 JUMP JUMPDEST SWAP2 POP POP PUSH2 0x19B JUMP JUMPDEST POP PUSH2 0x260 DUP2 DUP4 PUSH1 0x80 ADD MLOAD PUSH1 0x0 DUP2 MLOAD DUP2 LT PUSH2 0x253 JUMPI PUSH2 0x252 PUSH2 0x12C8 JUMP JUMPDEST JUMPDEST PUSH1 0x20 MUL PUSH1 0x20 ADD ADD MLOAD PUSH2 0x76A JUMP JUMPDEST SWAP1 POP PUSH2 0x2A6 DUP6 PUSH1 0x0 ADD MLOAD DUP7 PUSH1 0x20 ADD MLOAD PUSH2 0x278 DUP5 PUSH2 0x832 JUMP JUMPDEST DUP6 PUSH1 0x40 ADD MLOAD PUSH2 0x28A DUP11 PUSH1 0x40 ADD MLOAD PUSH2 0x832 JUMP JUMPDEST DUP8 PUSH1 0x60 ADD MLOAD PUSH2 0x29C DUP10 PUSH1 0x0 ADD MLOAD PUSH2 0x832 JUMP JUMPDEST DUP10 PUSH1 0x20 ADD MLOAD PUSH2 0x8D7 JUMP JUMPDEST PUSH2 0x2B6 JUMPI PUSH1 0x1 SWAP4 POP POP POP POP PUSH2 0x2BE JUMP JUMPDEST PUSH1 0x0 SWAP4 POP POP POP POP JUMPDEST SWAP3 SWAP2 POP POP JUMP JUMPDEST PUSH2 0x2CC PUSH2 0xDFA JUMP JUMPDEST PUSH1 0x40 MLOAD DUP1 PUSH1 0x40 ADD PUSH1 0x40 MSTORE DUP1 PUSH32 0x2B57D86FBEE204A508D151696F54DFFDBE2CFBBF12F5666FA519A3F4AE46BBA2 DUP2 MSTORE PUSH1 0x20 ADD PUSH32 0x1599A844A6D43FEEE3C4E4C23A7A655546F051257B598D54E003C8E2C078F6C3 DUP2 MSTORE POP DUP2 PUSH1 0x0 ADD DUP2 SWAP1 MSTORE POP PUSH1 0x40 MLOAD DUP1 PUSH1 0x40 ADD PUSH1 0x40 MSTORE DUP1 PUSH1 0x40 MLOAD DUP1 PUSH1 0x40 ADD PUSH1 0x40 MSTORE DUP1 PUSH32 0x29230605A78E74382750102EFF3F07906F40E69BCD8A952D0FDEE833A55FA992 DUP2 MSTORE PUSH1 0x20 ADD PUSH32 0x24E163644046E056EEBF85F484EEC92EFBB6898C619C8233059DD177637BCC5E DUP2 MSTORE POP DUP2 MSTORE PUSH1 0x20 ADD PUSH1 0x40 MLOAD DUP1 PUSH1 0x40 ADD PUSH1 0x40 MSTORE DUP1 PUSH32 0x24130E967DCAAC9B270979D2A15AE45C9D189EBE74044E6B49A68208222DA266 DUP2 MSTORE PUSH1 0x20 ADD PUSH32 0x71722E60D10A35F522D4CD8AC14BB8D8C35977F3CA0CDAD2A6EAAA015CB35E2 DUP2 MSTORE POP DUP2 MSTORE POP DUP2 PUSH1 0x20 ADD DUP2 SWAP1 MSTORE POP PUSH1 0x40 MLOAD DUP1 PUSH1 0x40 ADD PUSH1 0x40 MSTORE DUP1 PUSH1 0x40 MLOAD DUP1 PUSH1 0x40 ADD PUSH1 0x40 MSTORE DUP1 PUSH32 0x1B1930DB3FA748039EFD007245830609CC120A80B383CAE28061CBCAFA7FB6C2 DUP2 MSTORE PUSH1 0x20 ADD PUSH32 0x2BEA5128998E51CED0D5EFD5E63E86C102CC3B45F768A3DA7DB6A360E5DE5DD0 DUP2 MSTORE POP DUP2 MSTORE PUSH1 0x20 ADD PUSH1 0x40 MLOAD DUP1 PUSH1 0x40 ADD PUSH1 0x40 MSTORE DUP1 PUSH32 0x2984242441B994DC1C70F3D9A2252B10138C3CAAB073CDBCB452F63F28840FC4 DUP2 MSTORE PUSH1 0x20 ADD PUSH32 0x1B0F3366453EB215C1688155E3B86AC880AB9149686D2089CBE28CAD0CAAFE21 DUP2 MSTORE POP DUP2 MSTORE POP DUP2 PUSH1 0x40 ADD DUP2 SWAP1 MSTORE POP PUSH1 0x40 MLOAD DUP1 PUSH1 0x40 ADD PUSH1 0x40 MSTORE DUP1 PUSH1 0x40 MLOAD DUP1 PUSH1 0x40 ADD PUSH1 0x40 MSTORE DUP1 PUSH32 0x23EE6CB0AAE97D872C272AD7D7358B535FF6205A6850BF98BAD43DDB1503A5C8 DUP2 MSTORE PUSH1 0x20 ADD PUSH32 0x2929A2BD51132C6E49D5AAEB03AD65C21432AA39641895EA2A0CCA2BE2CBC796 DUP2 MSTORE POP DUP2 MSTORE PUSH1 0x20 ADD PUSH1 0x40 MLOAD DUP1 PUSH1 0x40 ADD PUSH1 0x40 MSTORE DUP1 PUSH32 0x11B40067486CA8BE694C8903C86E4FFFF778E69F7F8A6395618AE8EEC404AE8D DUP2 MSTORE PUSH1 0x20 ADD PUSH32 0x1421055C7F11BB433F26A76F49FFBE37709AC1FBD35FD2206138A6A01C071B15 DUP2 MSTORE POP DUP2 MSTORE POP DUP2 PUSH1 0x60 ADD DUP2 SWAP1 MSTORE POP PUSH1 0x2 PUSH8 0xFFFFFFFFFFFFFFFF DUP2 GT ISZERO PUSH2 0x593 JUMPI PUSH2 0x592 PUSH2 0xF2E JUMP JUMPDEST JUMPDEST PUSH1 0x40 MLOAD SWAP1 DUP1 DUP3 MSTORE DUP1 PUSH1 0x20 MUL PUSH1 0x20 ADD DUP3 ADD PUSH1 0x40 MSTORE DUP1 ISZERO PUSH2 0x5CC JUMPI DUP2 PUSH1 0x20 ADD JUMPDEST PUSH2 0x5B9 PUSH2 0xE41 JUMP JUMPDEST DUP2 MSTORE PUSH1 0x20 ADD SWAP1 PUSH1 0x1 SWAP1 SUB SWAP1 DUP2 PUSH2 0x5B1 JUMPI SWAP1 POP JUMPDEST POP DUP2 PUSH1 0x80 ADD DUP2 SWAP1 MSTORE POP PUSH1 0x40 MLOAD DUP1 PUSH1 0x40 ADD PUSH1 0x40 MSTORE DUP1 PUSH32 0x1AD41B2F3B3DEC33858D39D8A17A9DBB576CD47CA64FCE07209783CBD59D9A12 DUP2 MSTORE PUSH1 0x20 ADD PUSH32 0x22C73C904C306CAF013CB29C1CE589558F8B59C433AD582239E88BA2A0D61544 DUP2 MSTORE POP DUP2 PUSH1 0x80 ADD MLOAD PUSH1 0x0 DUP2 MLOAD DUP2 LT PUSH2 0x642 JUMPI PUSH2 0x641 PUSH2 0x12C8 JUMP JUMPDEST JUMPDEST PUSH1 0x20 MUL PUSH1 0x20 ADD ADD DUP2 SWAP1 MSTORE POP PUSH1 0x40 MLOAD DUP1 PUSH1 0x40 ADD PUSH1 0x40 MSTORE DUP1 PUSH32 0x27B08F3BCC7992EAAD60577E68E249079255086F5BED2C69B9D01F8BEA3FF043 DUP2 MSTORE PUSH1 0x20 ADD PUSH32 0x5506163277D78A204F426E7A4B40BDDF0973A838E3DFFB7614756E665B72A27 DUP2 MSTORE POP DUP2 PUSH1 0x80 ADD MLOAD PUSH1 0x1 DUP2 MLOAD DUP2 LT PUSH2 0x6BA JUMPI PUSH2 0x6B9 PUSH2 0x12C8 JUMP JUMPDEST JUMPDEST PUSH1 0x20 MUL PUSH1 0x20 ADD ADD DUP2 SWAP1 MSTORE POP SWAP1 JUMP JUMPDEST PUSH2 0x6D0 PUSH2 0xE41 JUMP JUMPDEST PUSH2 0x6D8 PUSH2 0xE5B JUMP JUMPDEST DUP4 PUSH1 0x0 ADD MLOAD DUP2 PUSH1 0x0 PUSH1 0x3 DUP2 LT PUSH2 0x6F1 JUMPI PUSH2 0x6F0 PUSH2 0x12C8 JUMP JUMPDEST JUMPDEST PUSH1 0x20 MUL ADD DUP2 DUP2 MSTORE POP POP DUP4 PUSH1 0x20 ADD MLOAD DUP2 PUSH1 0x1 PUSH1 0x3 DUP2 LT PUSH2 0x713 JUMPI PUSH2 0x712 PUSH2 0x12C8 JUMP JUMPDEST JUMPDEST PUSH1 0x20 MUL ADD DUP2 DUP2 MSTORE POP POP DUP3 DUP2 PUSH1 0x2 PUSH1 0x3 DUP2 LT PUSH2 0x731 JUMPI PUSH2 0x730 PUSH2 0x12C8 JUMP JUMPDEST JUMPDEST PUSH1 0x20 MUL ADD DUP2 DUP2 MSTORE POP POP PUSH1 0x0 PUSH1 0x60 DUP4 PUSH1 0x80 DUP5 PUSH1 0x7 PUSH2 0x7D0 GAS SUB STATICCALL SWAP1 POP DUP1 PUSH1 0x0 DUP2 SUB PUSH2 0x757 JUMPI INVALID JUMPDEST POP DUP1 PUSH2 0x762 JUMPI PUSH1 0x0 DUP1 REVERT JUMPDEST POP POP SWAP3 SWAP2 POP POP JUMP JUMPDEST PUSH2 0x772 PUSH2 0xE41 JUMP JUMPDEST PUSH2 0x77A PUSH2 0xE7D JUMP JUMPDEST DUP4 PUSH1 0x0 ADD MLOAD DUP2 PUSH1 0x0 PUSH1 0x4 DUP2 LT PUSH2 0x793 JUMPI PUSH2 0x792 PUSH2 0x12C8 JUMP JUMPDEST JUMPDEST PUSH1 0x20 MUL ADD DUP2 DUP2 MSTORE POP POP DUP4 PUSH1 0x20 ADD MLOAD DUP2 PUSH1 0x1 PUSH1 0x4 DUP2 LT PUSH2 0x7B5 JUMPI PUSH2 0x7B4 PUSH2 0x12C8 JUMP JUMPDEST JUMPDEST PUSH1 0x20 MUL ADD DUP2 DUP2 MSTORE POP POP DUP3 PUSH1 0x0 ADD MLOAD DUP2 PUSH1 0x2 PUSH1 0x4 DUP2 LT PUSH2 0x7D7 JUMPI PUSH2 0x7D6 PUSH2 0x12C8 JUMP JUMPDEST JUMPDEST PUSH1 0x20 MUL ADD DUP2 DUP2 MSTORE POP POP DUP3 PUSH1 0x20 ADD MLOAD DUP2 PUSH1 0x3 PUSH1 0x4 DUP2 LT PUSH2 0x7F9 JUMPI PUSH2 0x7F8 PUSH2 0x12C8 JUMP JUMPDEST JUMPDEST PUSH1 0x20 MUL ADD DUP2 DUP2 MSTORE POP POP PUSH1 0x0 PUSH1 0x60 DUP4 PUSH1 0xC0 DUP5 PUSH1 0x6 PUSH2 0x7D0 GAS SUB STATICCALL SWAP1 POP DUP1 PUSH1 0x0 DUP2 SUB PUSH2 0x81F JUMPI INVALID JUMPDEST POP DUP1 PUSH2 0x82A JUMPI PUSH1 0x0 DUP1 REVERT JUMPDEST POP POP SWAP3 SWAP2 POP POP JUMP JUMPDEST PUSH2 0x83A PUSH2 0xE41 JUMP JUMPDEST PUSH1 0x0 PUSH32 0x30644E72E131A029B85045B68181585D97816A916871CA8D3C208C16D87CFD47 SWAP1 POP PUSH1 0x0 DUP4 PUSH1 0x0 ADD MLOAD EQ DUP1 ISZERO PUSH2 0x877 JUMPI POP PUSH1 0x0 DUP4 PUSH1 0x20 ADD MLOAD EQ JUMPDEST ISZERO PUSH2 0x89B JUMPI PUSH1 0x40 MLOAD DUP1 PUSH1 0x40 ADD PUSH1 0x40 MSTORE DUP1 PUSH1 0x0 DUP2 MSTORE PUSH1 0x20 ADD PUSH1 0x0 DUP2 MSTORE POP SWAP2 POP POP PUSH2 0x8D2 JUMP JUMPDEST PUSH1 0x40 MLOAD DUP1 PUSH1 0x40 ADD PUSH1 0x40 MSTORE DUP1 DUP5 PUSH1 0x0 ADD MLOAD DUP2 MSTORE PUSH1 0x20 ADD DUP3 DUP6 PUSH1 0x20 ADD MLOAD PUSH2 0x8C0 SWAP2 SWAP1 PUSH2 0x13D1 JUMP JUMPDEST DUP4 PUSH2 0x8CB SWAP2 SWAP1 PUSH2 0x1402 JUMP JUMPDEST DUP2 MSTORE POP SWAP2 POP POP JUMPDEST SWAP2 SWAP1 POP JUMP JUMPDEST PUSH1 0x0 DUP1 PUSH1 0x4 PUSH8 0xFFFFFFFFFFFFFFFF DUP2 GT ISZERO PUSH2 0x8F5 JUMPI PUSH2 0x8F4 PUSH2 0xF2E JUMP JUMPDEST JUMPDEST PUSH1 0x40 MLOAD SWAP1 DUP1 DUP3 MSTORE DUP1 PUSH1 0x20 MUL PUSH1 0x20 ADD DUP3 ADD PUSH1 0x40 MSTORE DUP1 ISZERO PUSH2 0x92E JUMPI DUP2 PUSH1 0x20 ADD JUMPDEST PUSH2 0x91B PUSH2 0xE41 JUMP JUMPDEST DUP2 MSTORE PUSH1 0x20 ADD SWAP1 PUSH1 0x1 SWAP1 SUB SWAP1 DUP2 PUSH2 0x913 JUMPI SWAP1 POP JUMPDEST POP SWAP1 POP PUSH1 0x0 PUSH1 0x4 PUSH8 0xFFFFFFFFFFFFFFFF DUP2 GT ISZERO PUSH2 0x94E JUMPI PUSH2 0x94D PUSH2 0xF2E JUMP JUMPDEST JUMPDEST PUSH1 0x40 MLOAD SWAP1 DUP1 DUP3 MSTORE DUP1 PUSH1 0x20 MUL PUSH1 0x20 ADD DUP3 ADD PUSH1 0x40 MSTORE DUP1 ISZERO PUSH2 0x987 JUMPI DUP2 PUSH1 0x20 ADD JUMPDEST PUSH2 0x974 PUSH2 0xE9F JUMP JUMPDEST DUP2 MSTORE PUSH1 0x20 ADD SWAP1 PUSH1 0x1 SWAP1 SUB SWAP1 DUP2 PUSH2 0x96C JUMPI SWAP1 POP JUMPDEST POP SWAP1 POP DUP11 DUP3 PUSH1 0x0 DUP2 MLOAD DUP2 LT PUSH2 0x99F JUMPI PUSH2 0x99E PUSH2 0x12C8 JUMP JUMPDEST JUMPDEST PUSH1 0x20 MUL PUSH1 0x20 ADD ADD DUP2 SWAP1 MSTORE POP DUP9 DUP3 PUSH1 0x1 DUP2 MLOAD DUP2 LT PUSH2 0x9BF JUMPI PUSH2 0x9BE PUSH2 0x12C8 JUMP JUMPDEST JUMPDEST PUSH1 0x20 MUL PUSH1 0x20 ADD ADD DUP2 SWAP1 MSTORE POP DUP7 DUP3 PUSH1 0x2 DUP2 MLOAD DUP2 LT PUSH2 0x9DF JUMPI PUSH2 0x9DE PUSH2 0x12C8 JUMP JUMPDEST JUMPDEST PUSH1 0x20 MUL PUSH1 0x20 ADD ADD DUP2 SWAP1 MSTORE POP DUP5 DUP3 PUSH1 0x3 DUP2 MLOAD DUP2 LT PUSH2 0x9FF JUMPI PUSH2 0x9FE PUSH2 0x12C8 JUMP JUMPDEST JUMPDEST PUSH1 0x20 MUL PUSH1 0x20 ADD ADD DUP2 SWAP1 MSTORE POP DUP10 DUP2 PUSH1 0x0 DUP2 MLOAD DUP2 LT PUSH2 0xA1F JUMPI PUSH2 0xA1E PUSH2 0x12C8 JUMP JUMPDEST JUMPDEST PUSH1 0x20 MUL PUSH1 0x20 ADD ADD DUP2 SWAP1 MSTORE POP DUP8 DUP2 PUSH1 0x1 DUP2 MLOAD DUP2 LT PUSH2 0xA3F JUMPI PUSH2 0xA3E PUSH2 0x12C8 JUMP JUMPDEST JUMPDEST PUSH1 0x20 MUL PUSH1 0x20 ADD ADD DUP2 SWAP1 MSTORE POP DUP6 DUP2 PUSH1 0x2 DUP2 MLOAD DUP2 LT PUSH2 0xA5F JUMPI PUSH2 0xA5E PUSH2 0x12C8 JUMP JUMPDEST JUMPDEST PUSH1 0x20 MUL PUSH1 0x20 ADD ADD DUP2 SWAP1 MSTORE POP DUP4 DUP2 PUSH1 0x3 DUP2 MLOAD DUP2 LT PUSH2 0xA7F JUMPI PUSH2 0xA7E PUSH2 0x12C8 JUMP JUMPDEST JUMPDEST PUSH1 0x20 MUL PUSH1 0x20 ADD ADD DUP2 SWAP1 MSTORE POP PUSH2 0xA94 DUP3 DUP3 PUSH2 0xAA4 JUMP JUMPDEST SWAP3 POP POP POP SWAP9 SWAP8 POP POP POP POP POP POP POP POP JUMP JUMPDEST PUSH1 0x0 DUP2 MLOAD DUP4 MLOAD EQ PUSH2 0xAB4 JUMPI PUSH1 0x0 DUP1 REVERT JUMPDEST PUSH1 0x0 DUP4 MLOAD SWAP1 POP PUSH1 0x0 PUSH1 0x6 DUP3 PUSH2 0xAC9 SWAP2 SWAP1 PUSH2 0x1436 JUMP JUMPDEST SWAP1 POP PUSH1 0x0 DUP2 PUSH8 0xFFFFFFFFFFFFFFFF DUP2 GT ISZERO PUSH2 0xAE7 JUMPI PUSH2 0xAE6 PUSH2 0xF2E JUMP JUMPDEST JUMPDEST PUSH1 0x40 MLOAD SWAP1 DUP1 DUP3 MSTORE DUP1 PUSH1 0x20 MUL PUSH1 0x20 ADD DUP3 ADD PUSH1 0x40 MSTORE DUP1 ISZERO PUSH2 0xB15 JUMPI DUP2 PUSH1 0x20 ADD PUSH1 0x20 DUP3 MUL DUP1 CALLDATASIZE DUP4 CALLDATACOPY DUP1 DUP3 ADD SWAP2 POP POP SWAP1 POP JUMPDEST POP SWAP1 POP PUSH1 0x0 JUMPDEST DUP4 DUP2 LT ISZERO PUSH2 0xD9A JUMPI DUP7 DUP2 DUP2 MLOAD DUP2 LT PUSH2 0xB36 JUMPI PUSH2 0xB35 PUSH2 0x12C8 JUMP JUMPDEST JUMPDEST PUSH1 0x20 MUL PUSH1 0x20 ADD ADD MLOAD PUSH1 0x0 ADD MLOAD DUP3 PUSH1 0x0 PUSH1 0x6 DUP5 PUSH2 0xB52 SWAP2 SWAP1 PUSH2 0x1436 JUMP JUMPDEST PUSH2 0xB5C SWAP2 SWAP1 PUSH2 0x136E JUMP JUMPDEST DUP2 MLOAD DUP2 LT PUSH2 0xB6D JUMPI PUSH2 0xB6C PUSH2 0x12C8 JUMP JUMPDEST JUMPDEST PUSH1 0x20 MUL PUSH1 0x20 ADD ADD DUP2 DUP2 MSTORE POP POP DUP7 DUP2 DUP2 MLOAD DUP2 LT PUSH2 0xB8C JUMPI PUSH2 0xB8B PUSH2 0x12C8 JUMP JUMPDEST JUMPDEST PUSH1 0x20 MUL PUSH1 0x20 ADD ADD MLOAD PUSH1 0x20 ADD MLOAD DUP3 PUSH1 0x1 PUSH1 0x6 DUP5 PUSH2 0xBA8 SWAP2 SWAP1 PUSH2 0x1436 JUMP JUMPDEST PUSH2 0xBB2 SWAP2 SWAP1 PUSH2 0x136E JUMP JUMPDEST DUP2 MLOAD DUP2 LT PUSH2 0xBC3 JUMPI PUSH2 0xBC2 PUSH2 0x12C8 JUMP JUMPDEST JUMPDEST PUSH1 0x20 MUL PUSH1 0x20 ADD ADD DUP2 DUP2 MSTORE POP POP DUP6 DUP2 DUP2 MLOAD DUP2 LT PUSH2 0xBE2 JUMPI PUSH2 0xBE1 PUSH2 0x12C8 JUMP JUMPDEST JUMPDEST PUSH1 0x20 MUL PUSH1 0x20 ADD ADD MLOAD PUSH1 0x0 ADD MLOAD PUSH1 0x1 PUSH1 0x2 DUP2 LT PUSH2 0xC01 JUMPI PUSH2 0xC00 PUSH2 0x12C8 JUMP JUMPDEST JUMPDEST PUSH1 0x20 MUL ADD MLOAD DUP3 PUSH1 0x2 PUSH1 0x6 DUP5 PUSH2 0xC16 SWAP2 SWAP1 PUSH2 0x1436 JUMP JUMPDEST PUSH2 0xC20 SWAP2 SWAP1 PUSH2 0x136E JUMP JUMPDEST DUP2 MLOAD DUP2 LT PUSH2 0xC31 JUMPI PUSH2 0xC30 PUSH2 0x12C8 JUMP JUMPDEST JUMPDEST PUSH1 0x20 MUL PUSH1 0x20 ADD ADD DUP2 DUP2 MSTORE POP POP DUP6 DUP2 DUP2 MLOAD DUP2 LT PUSH2 0xC50 JUMPI PUSH2 0xC4F PUSH2 0x12C8 JUMP JUMPDEST JUMPDEST PUSH1 0x20 MUL PUSH1 0x20 ADD ADD MLOAD PUSH1 0x0 ADD MLOAD PUSH1 0x0 PUSH1 0x2 DUP2 LT PUSH2 0xC6F JUMPI PUSH2 0xC6E PUSH2 0x12C8 JUMP JUMPDEST JUMPDEST PUSH1 0x20 MUL ADD MLOAD DUP3 PUSH1 0x3 PUSH1 0x6 DUP5 PUSH2 0xC84 SWAP2 SWAP1 PUSH2 0x1436 JUMP JUMPDEST PUSH2 0xC8E SWAP2 SWAP1 PUSH2 0x136E JUMP JUMPDEST DUP2 MLOAD DUP2 LT PUSH2 0xC9F JUMPI PUSH2 0xC9E PUSH2 0x12C8 JUMP JUMPDEST JUMPDEST PUSH1 0x20 MUL PUSH1 0x20 ADD ADD DUP2 DUP2 MSTORE POP POP DUP6 DUP2 DUP2 MLOAD DUP2 LT PUSH2 0xCBE JUMPI PUSH2 0xCBD PUSH2 0x12C8 JUMP JUMPDEST JUMPDEST PUSH1 0x20 MUL PUSH1 0x20 ADD ADD MLOAD PUSH1 0x20 ADD MLOAD PUSH1 0x1 PUSH1 0x2 DUP2 LT PUSH2 0xCDD JUMPI PUSH2 0xCDC PUSH2 0x12C8 JUMP JUMPDEST JUMPDEST PUSH1 0x20 MUL ADD MLOAD DUP3 PUSH1 0x4 PUSH1 0x6 DUP5 PUSH2 0xCF2 SWAP2 SWAP1 PUSH2 0x1436 JUMP JUMPDEST PUSH2 0xCFC SWAP2 SWAP1 PUSH2 0x136E JUMP JUMPDEST DUP2 MLOAD DUP2 LT PUSH2 0xD0D JUMPI PUSH2 0xD0C PUSH2 0x12C8 JUMP JUMPDEST JUMPDEST PUSH1 0x20 MUL PUSH1 0x20 ADD ADD DUP2 DUP2 MSTORE POP POP DUP6 DUP2 DUP2 MLOAD DUP2 LT PUSH2 0xD2C JUMPI PUSH2 0xD2B PUSH2 0x12C8 JUMP JUMPDEST JUMPDEST PUSH1 0x20 MUL PUSH1 0x20 ADD ADD MLOAD PUSH1 0x20 ADD MLOAD PUSH1 0x0 PUSH1 0x2 DUP2 LT PUSH2 0xD4B JUMPI PUSH2 0xD4A PUSH2 0x12C8 JUMP JUMPDEST JUMPDEST PUSH1 0x20 MUL ADD MLOAD DUP3 PUSH1 0x5 PUSH1 0x6 DUP5 PUSH2 0xD60 SWAP2 SWAP1 PUSH2 0x1436 JUMP JUMPDEST PUSH2 0xD6A SWAP2 SWAP1 PUSH2 0x136E JUMP JUMPDEST DUP2 MLOAD DUP2 LT PUSH2 0xD7B JUMPI PUSH2 0xD7A PUSH2 0x12C8 JUMP JUMPDEST JUMPDEST PUSH1 0x20 MUL PUSH1 0x20 ADD ADD DUP2 DUP2 MSTORE POP POP DUP1 DUP1 PUSH2 0xD92 SWAP1 PUSH2 0x1326 JUMP JUMPDEST SWAP2 POP POP PUSH2 0xB1B JUMP JUMPDEST POP PUSH2 0xDA3 PUSH2 0xEC5 JUMP JUMPDEST PUSH1 0x0 PUSH1 0x20 DUP3 PUSH1 0x20 DUP7 MUL PUSH1 0x20 DUP7 ADD PUSH1 0x8 PUSH2 0x7D0 GAS SUB STATICCALL SWAP1 POP DUP1 PUSH1 0x0 DUP2 SUB PUSH2 0xDC5 JUMPI INVALID JUMPDEST POP DUP1 PUSH2 0xDD0 JUMPI PUSH1 0x0 DUP1 REVERT JUMPDEST PUSH1 0x0 DUP3 PUSH1 0x0 PUSH1 0x1 DUP2 LT PUSH2 0xDE6 JUMPI PUSH2 0xDE5 PUSH2 0x12C8 JUMP JUMPDEST JUMPDEST PUSH1 0x20 MUL ADD MLOAD EQ ISZERO SWAP6 POP POP POP POP POP POP SWAP3 SWAP2 POP POP JUMP JUMPDEST PUSH1 0x40 MLOAD DUP1 PUSH1 0xA0 ADD PUSH1 0x40 MSTORE DUP1 PUSH2 0xE0D PUSH2 0xE41 JUMP JUMPDEST DUP2 MSTORE PUSH1 0x20 ADD PUSH2 0xE1A PUSH2 0xE9F JUMP JUMPDEST DUP2 MSTORE PUSH1 0x20 ADD PUSH2 0xE27 PUSH2 0xE9F JUMP JUMPDEST DUP2 MSTORE PUSH1 0x20 ADD PUSH2 0xE34 PUSH2 0xE9F JUMP JUMPDEST DUP2 MSTORE PUSH1 0x20 ADD PUSH1 0x60 DUP2 MSTORE POP SWAP1 JUMP JUMPDEST PUSH1 0x40 MLOAD DUP1 PUSH1 0x40 ADD PUSH1 0x40 MSTORE DUP1 PUSH1 0x0 DUP2 MSTORE PUSH1 0x20 ADD PUSH1 0x0 DUP2 MSTORE POP SWAP1 JUMP JUMPDEST PUSH1 0x40 MLOAD DUP1 PUSH1 0x60 ADD PUSH1 0x40 MSTORE DUP1 PUSH1 0x3 SWAP1 PUSH1 0x20 DUP3 MUL DUP1 CALLDATASIZE DUP4 CALLDATACOPY DUP1 DUP3 ADD SWAP2 POP POP SWAP1 POP POP SWAP1 JUMP JUMPDEST PUSH1 0x40 MLOAD DUP1 PUSH1 0x80 ADD PUSH1 0x40 MSTORE DUP1 PUSH1 0x4 SWAP1 PUSH1 0x20 DUP3 MUL DUP1 CALLDATASIZE DUP4 CALLDATACOPY DUP1 DUP3 ADD SWAP2 POP POP SWAP1 POP POP SWAP1 JUMP JUMPDEST PUSH1 0x40 MLOAD DUP1 PUSH1 0x40 ADD PUSH1 0x40 MSTORE DUP1 PUSH2 0xEB2 PUSH2 0xEE7 JUMP JUMPDEST DUP2 MSTORE PUSH1 0x20 ADD PUSH2 0xEBF PUSH2 0xEE7 JUMP JUMPDEST DUP2 MSTORE POP SWAP1 JUMP JUMPDEST PUSH1 0x40 MLOAD DUP1 PUSH1 0x20 ADD PUSH1 0x40 MSTORE DUP1 PUSH1 0x1 SWAP1 PUSH1 0x20 DUP3 MUL DUP1 CALLDATASIZE DUP4 CALLDATACOPY DUP1 DUP3 ADD SWAP2 POP POP SWAP1 POP POP SWAP1 JUMP JUMPDEST PUSH1 0x40 MLOAD DUP1 PUSH1 0x40 ADD PUSH1 0x40 MSTORE DUP1 PUSH1 0x2 SWAP1 PUSH1 0x20 DUP3 MUL DUP1 CALLDATASIZE DUP4 CALLDATACOPY DUP1 DUP3 ADD SWAP2 POP POP SWAP1 POP POP SWAP1 JUMP JUMPDEST PUSH1 0x0 PUSH1 0x40 MLOAD SWAP1 POP SWAP1 JUMP JUMPDEST PUSH1 0x0 DUP1 REVERT JUMPDEST PUSH1 0x0 DUP1 REVERT JUMPDEST PUSH1 0x0 PUSH1 0x1F NOT PUSH1 0x1F DUP4 ADD AND SWAP1 POP SWAP2 SWAP1 POP JUMP JUMPDEST PUSH32 0x4E487B7100000000000000000000000000000000000000000000000000000000 PUSH1 0x0 MSTORE PUSH1 0x41 PUSH1 0x4 MSTORE PUSH1 0x24 PUSH1 0x0 REVERT JUMPDEST PUSH2 0xF66 DUP3 PUSH2 0xF1D JUMP JUMPDEST DUP2 ADD DUP2 DUP2 LT PUSH8 0xFFFFFFFFFFFFFFFF DUP3 GT OR ISZERO PUSH2 0xF85 JUMPI PUSH2 0xF84 PUSH2 0xF2E JUMP JUMPDEST JUMPDEST DUP1 PUSH1 0x40 MSTORE POP POP POP JUMP JUMPDEST PUSH1 0x0 PUSH2 0xF98 PUSH2 0xF09 JUMP JUMPDEST SWAP1 POP PUSH2 0xFA4 DUP3 DUP3 PUSH2 0xF5D JUMP JUMPDEST SWAP2 SWAP1 POP JUMP JUMPDEST PUSH1 0x0 DUP2 SWAP1 POP SWAP2 SWAP1 POP JUMP JUMPDEST PUSH2 0xFBC DUP2 PUSH2 0xFA9 JUMP JUMPDEST DUP2 EQ PUSH2 0xFC7 JUMPI PUSH1 0x0 DUP1 REVERT JUMPDEST POP JUMP JUMPDEST PUSH1 0x0 DUP2 CALLDATALOAD SWAP1 POP PUSH2 0xFD9 DUP2 PUSH2 0xFB3 JUMP JUMPDEST SWAP3 SWAP2 POP POP JUMP JUMPDEST PUSH1 0x0 PUSH1 0x40 DUP3 DUP5 SUB SLT ISZERO PUSH2 0xFF5 JUMPI PUSH2 0xFF4 PUSH2 0xF18 JUMP JUMPDEST JUMPDEST PUSH2 0xFFF PUSH1 0x40 PUSH2 0xF8E JUMP JUMPDEST SWAP1 POP PUSH1 0x0 PUSH2 0x100F DUP5 DUP3 DUP6 ADD PUSH2 0xFCA JUMP JUMPDEST PUSH1 0x0 DUP4 ADD MSTORE POP PUSH1 0x20 PUSH2 0x1023 DUP5 DUP3 DUP6 ADD PUSH2 0xFCA JUMP JUMPDEST PUSH1 0x20 DUP4 ADD MSTORE POP SWAP3 SWAP2 POP POP JUMP JUMPDEST PUSH1 0x0 DUP1 REVERT JUMPDEST PUSH1 0x0 PUSH8 0xFFFFFFFFFFFFFFFF DUP3 GT ISZERO PUSH2 0x104F JUMPI PUSH2 0x104E PUSH2 0xF2E JUMP JUMPDEST JUMPDEST PUSH1 0x20 DUP3 MUL SWAP1 POP SWAP2 SWAP1 POP JUMP JUMPDEST PUSH1 0x0 DUP1 REVERT JUMPDEST PUSH1 0x0 PUSH2 0x1072 PUSH2 0x106D DUP5 PUSH2 0x1034 JUMP JUMPDEST PUSH2 0xF8E JUMP JUMPDEST SWAP1 POP DUP1 PUSH1 0x20 DUP5 MUL DUP4 ADD DUP6 DUP2 GT ISZERO PUSH2 0x108C JUMPI PUSH2 0x108B PUSH2 0x105A JUMP JUMPDEST JUMPDEST DUP4 JUMPDEST DUP2 DUP2 LT ISZERO PUSH2 0x10B5 JUMPI DUP1 PUSH2 0x10A1 DUP9 DUP3 PUSH2 0xFCA JUMP JUMPDEST DUP5 MSTORE PUSH1 0x20 DUP5 ADD SWAP4 POP POP PUSH1 0x20 DUP2 ADD SWAP1 POP PUSH2 0x108E JUMP JUMPDEST POP POP POP SWAP4 SWAP3 POP POP POP JUMP JUMPDEST PUSH1 0x0 DUP3 PUSH1 0x1F DUP4 ADD SLT PUSH2 0x10D4 JUMPI PUSH2 0x10D3 PUSH2 0x102F JUMP JUMPDEST JUMPDEST PUSH1 0x2 PUSH2 0x10E1 DUP5 DUP3 DUP6 PUSH2 0x105F JUMP JUMPDEST SWAP2 POP POP SWAP3 SWAP2 POP POP JUMP JUMPDEST PUSH1 0x0 PUSH1 0x80 DUP3 DUP5 SUB SLT ISZERO PUSH2 0x1100 JUMPI PUSH2 0x10FF PUSH2 0xF18 JUMP JUMPDEST JUMPDEST PUSH2 0x110A PUSH1 0x40 PUSH2 0xF8E JUMP JUMPDEST SWAP1 POP PUSH1 0x0 PUSH2 0x111A DUP5 DUP3 DUP6 ADD PUSH2 0x10BF JUMP JUMPDEST PUSH1 0x0 DUP4 ADD MSTORE POP PUSH1 0x40 PUSH2 0x112E DUP5 DUP3 DUP6 ADD PUSH2 0x10BF JUMP JUMPDEST PUSH1 0x20 DUP4 ADD MSTORE POP SWAP3 SWAP2 POP POP JUMP JUMPDEST PUSH1 0x0 PUSH2 0x100 DUP3 DUP5 SUB SLT ISZERO PUSH2 0x1151 JUMPI PUSH2 0x1150 PUSH2 0xF18 JUMP JUMPDEST JUMPDEST PUSH2 0x115B PUSH1 0x60 PUSH2 0xF8E JUMP JUMPDEST SWAP1 POP PUSH1 0x0 PUSH2 0x116B DUP5 DUP3 DUP6 ADD PUSH2 0xFDF JUMP JUMPDEST PUSH1 0x0 DUP4 ADD MSTORE POP PUSH1 0x40 PUSH2 0x117F DUP5 DUP3 DUP6 ADD PUSH2 0x10EA JUMP JUMPDEST PUSH1 0x20 DUP4 ADD MSTORE POP PUSH1 0xC0 PUSH2 0x1193 DUP5 DUP3 DUP6 ADD PUSH2 0xFDF JUMP JUMPDEST PUSH1 0x40 DUP4 ADD MSTORE POP SWAP3 SWAP2 POP POP JUMP JUMPDEST PUSH1 0x0 PUSH8 0xFFFFFFFFFFFFFFFF DUP3 GT ISZERO PUSH2 0x11BA JUMPI PUSH2 0x11B9 PUSH2 0xF2E JUMP JUMPDEST JUMPDEST PUSH1 0x20 DUP3 MUL SWAP1 POP SWAP2 SWAP1 POP JUMP JUMPDEST PUSH1 0x0 PUSH2 0x11D8 PUSH2 0x11D3 DUP5 PUSH2 0x119F JUMP JUMPDEST PUSH2 0xF8E JUMP JUMPDEST SWAP1 POP DUP1 PUSH1 0x20 DUP5 MUL DUP4 ADD DUP6 DUP2 GT ISZERO PUSH2 0x11F2 JUMPI PUSH2 0x11F1 PUSH2 0x105A JUMP JUMPDEST JUMPDEST DUP4 JUMPDEST DUP2 DUP2 LT ISZERO PUSH2 0x121B JUMPI DUP1 PUSH2 0x1207 DUP9 DUP3 PUSH2 0xFCA JUMP JUMPDEST DUP5 MSTORE PUSH1 0x20 DUP5 ADD SWAP4 POP POP PUSH1 0x20 DUP2 ADD SWAP1 POP PUSH2 0x11F4 JUMP JUMPDEST POP POP POP SWAP4 SWAP3 POP POP POP JUMP JUMPDEST PUSH1 0x0 DUP3 PUSH1 0x1F DUP4 ADD SLT PUSH2 0x123A JUMPI PUSH2 0x1239 PUSH2 0x102F JUMP JUMPDEST JUMPDEST PUSH1 0x1 PUSH2 0x1247 DUP5 DUP3 DUP6 PUSH2 0x11C5 JUMP JUMPDEST SWAP2 POP POP SWAP3 SWAP2 POP POP JUMP JUMPDEST PUSH1 0x0 DUP1 PUSH2 0x120 DUP4 DUP6 SUB SLT ISZERO PUSH2 0x1268 JUMPI PUSH2 0x1267 PUSH2 0xF13 JUMP JUMPDEST JUMPDEST PUSH1 0x0 PUSH2 0x1276 DUP6 DUP3 DUP7 ADD PUSH2 0x113A JUMP JUMPDEST SWAP3 POP POP PUSH2 0x100 PUSH2 0x1288 DUP6 DUP3 DUP7 ADD PUSH2 0x1225 JUMP JUMPDEST SWAP2 POP POP SWAP3 POP SWAP3 SWAP1 POP JUMP JUMPDEST PUSH1 0x0 DUP2 ISZERO ISZERO SWAP1 POP SWAP2 SWAP1 POP JUMP JUMPDEST PUSH2 0x12A7 DUP2 PUSH2 0x1292 JUMP JUMPDEST DUP3 MSTORE POP POP JUMP JUMPDEST PUSH1 0x0 PUSH1 0x20 DUP3 ADD SWAP1 POP PUSH2 0x12C2 PUSH1 0x0 DUP4 ADD DUP5 PUSH2 0x129E JUMP JUMPDEST SWAP3 SWAP2 POP POP JUMP JUMPDEST PUSH32 0x4E487B7100000000000000000000000000000000000000000000000000000000 PUSH1 0x0 MSTORE PUSH1 0x32 PUSH1 0x4 MSTORE PUSH1 0x24 PUSH1 0x0 REVERT JUMPDEST PUSH32 0x4E487B7100000000000000000000000000000000000000000000000000000000 PUSH1 0x0 MSTORE PUSH1 0x11 PUSH1 0x4 MSTORE PUSH1 0x24 PUSH1 0x0 REVERT JUMPDEST PUSH1 0x0 PUSH2 0x1331 DUP3 PUSH2 0xFA9 JUMP JUMPDEST SWAP2 POP PUSH32 0xFFFFFFFFFFFFFFFFFFFFFFFFFFFFFFFFFFFFFFFFFFFFFFFFFFFFFFFFFFFFFFFF DUP3 SUB PUSH2 0x1363 JUMPI PUSH2 0x1362 PUSH2 0x12F7 JUMP JUMPDEST JUMPDEST PUSH1 0x1 DUP3 ADD SWAP1 POP SWAP2 SWAP1 POP JUMP JUMPDEST PUSH1 0x0 PUSH2 0x1379 DUP3 PUSH2 0xFA9 JUMP JUMPDEST SWAP2 POP PUSH2 0x1384 DUP4 PUSH2 0xFA9 JUMP JUMPDEST SWAP3 POP DUP3 DUP3 ADD SWAP1 POP DUP1 DUP3 GT ISZERO PUSH2 0x139C JUMPI PUSH2 0x139B PUSH2 0x12F7 JUMP JUMPDEST JUMPDEST SWAP3 SWAP2 POP POP JUMP JUMPDEST PUSH32 0x4E487B7100000000000000000000000000000000000000000000000000000000 PUSH1 0x0 MSTORE PUSH1 0x12 PUSH1 0x4 MSTORE PUSH1 0x24 PUSH1 0x0 REVERT JUMPDEST PUSH1 0x0 PUSH2 0x13DC DUP3 PUSH2 0xFA9 JUMP JUMPDEST SWAP2 POP PUSH2 0x13E7 DUP4 PUSH2 0xFA9 JUMP JUMPDEST SWAP3 POP DUP3 PUSH2 0x13F7 JUMPI PUSH2 0x13F6 PUSH2 0x13A2 JUMP JUMPDEST JUMPDEST DUP3 DUP3 MOD SWAP1 POP SWAP3 SWAP2 POP POP JUMP JUMPDEST PUSH1 0x0 PUSH2 0x140D DUP3 PUSH2 0xFA9 JUMP JUMPDEST SWAP2 POP PUSH2 0x1418 DUP4 PUSH2 0xFA9 JUMP JUMPDEST SWAP3 POP DUP3 DUP3 SUB SWAP1 POP DUP2 DUP2 GT ISZERO PUSH2 0x1430 JUMPI PUSH2 0x142F PUSH2 0x12F7 JUMP JUMPDEST JUMPDEST SWAP3 SWAP2 POP POP JUMP JUMPDEST PUSH1 0x0 PUSH2 0x1441 DUP3 PUSH2 0xFA9 JUMP JUMPDEST SWAP2 POP PUSH2 0x144C DUP4 PUSH2 0xFA9 JUMP JUMPDEST SWAP3 POP DUP3 DUP3 MUL PUSH2 0x145A DUP2 PUSH2 0xFA9 JUMP JUMPDEST SWAP2 POP DUP3 DUP3 DIV DUP5 EQ DUP4 ISZERO OR PUSH2 0x1471 JUMPI PUSH2 0x1470 PUSH2 0x12F7 JUMP JUMPDEST JUMPDEST POP SWAP3 SWAP2 POP POP JUMP INVALID LOG2 PUSH5 0x6970667358 0x22 SLT KECCAK256 0xD4 DUP3 NOT 0xE 0xB7 GT SWAP3 PUSH1 0xE2 0xD3 DUP11 OR 0x21 0xCF SELFDESTRUCT ADDRESS CHAINID 0xCD 0xE5 0xF6 TIMESTAMP PUSH20 0x2C0EE91AD778BFBF59D064736F6C634300081200 CALLER "
				},
				"gasEstimates": {
					"creation": {
						"codeDepositCost": "1058800",
						"executionCost": "1100",
						"totalCost": "1059900"
					},
					"external": {
						"verifyTx(((uint256,uint256),(uint256[2],uint256[2]),(uint256,uint256)),uint256[1])": "infinite"
					},
					"internal": {
						"verify(uint256[] memory,struct Verifier.Proof memory)": "infinite",
						"verifyingKey()": "infinite"
					}
				},
				"methodIdentifiers": {
					"verifyTx(((uint256,uint256),(uint256[2],uint256[2]),(uint256,uint256)),uint256[1])": "f48d7729"
				}
			},
			"storageLayout": {
				"storage": [],
				"types": null
			},
			"userdoc": {
				"kind": "user",
				"methods": {},
				"version": 1
			}
		}
	}
}